:020000040800F2
:10000000881700202D0200084F1D0008351B00082E
:100010004D1D0008230400084526000800000000CC
:10002000000000000000000000000000D11D0008DA
:100030002504000800000000511D0008D31D000821
:10004000470200084702000847020008470200086C
:10005000470200084702000847020008270400087A
:10006000470200084702000847020008470200084C
:10007000470200084702000847020008470200083C
:10008000470200084702000847020008000000007D
:10009000000000000000000000000000470200080F
:1000A000470200084702000847020008470200080C
:1000B000470200080000000000000000470200089E
:1000C00047020008470200084702000847020008EC
:1000D00047020008470200084702000847020008DC
:1000E000470200084702000800000000000000006E
:1000F0000000000000000000000000000000000000
:1001000000000000000000000000000000000000EF
:100110000000000000000000851E00080000000034
:10012000470200084702000847020008470200088B
:10013000470200080000000000000000000000006E
:10014000470200084702000847020008470200086B
:10015000470200084702000847020008470200085B
:1001600047020008470200080000000000000000ED
:10017000000000004702000800000000000000002E
:1001800047020008470200084702000800F002F892
:1001900000F03CF80AA090E8000C82448344AAF1E5
:1001A0000107DA4501D100F031F8AFF2090EBAE8E3
:1001B0000F0013F0010F18BFFB1A43F0010318479B
:1001C000642B0000842B0000103A24BF78C878C14B
:1001D000FAD8520724BF30C830C144BF04680C604D
:1001E000704700000023002400250026103A28BF95
:1001F00078C1FBD8520728BF30C148BF0B60704799
:100200001FB502F060FD1FBD10B510BD00F0CFF8A6
:100210001146FFF7F5FF02F027FA00F0EDF803B4FE
:10022000FFF7F2FF03BC00F0F5F800000948804733
:1002300009480047FEE7FEE7FEE7FEE7FEE7FEE7C8
:10024000FEE7FEE7FEE7FEE704480549054A064BE0
:1002500070470000491E00088D0100088811002029
:1002600088170020881300208813002053EA020C0E
:1002700000F069802DE9F04B4FF00006002B1FBF06
:10028000B3FA83F503FA05F424FA05F65E4012BFCB
:100290001643B2FA82F502FA05F4C5F120051EBF35
:1002A00022FA05FC44EA0C04203556EA044C4FEAD5
:1002B000144418BF641C4FF000084FF0000990422E
:1002C00071EB030C39D3002919BFB1FA81F701FA98
:1002D00007F6B0FA80F700FA07F6C7F120071EBF4D
:1002E00020FA07FC46EA0C062037B6FBF4FCA7EB25
:1002F0000507103F07F01F0BCBF120060CFA0BFB94
:100300002CFA06F644BFB3460026202FA4BF5E4653
:100310004FF0000B5BEA060C08BF4FF0010B19EB26
:100320000B09ABFB027C48EB0608C01B06FB02CCAA
:100330000BFB03CC71EB0C01C1E70B4602464146B7
:100340004846BDE8F08B13B54FF000004FF00001B8
:10035000AFF30080BDE81C4070474FF0000200B5CD
:10036000134694469646203922BFA0E80C50A0E8D8
:100370000C50B1F12001BFF4F7AF090728BFA0E886
:100380000C5048BF0CC05DF804EB890028BF40F852
:10039000042B08BF704748BF20F8022B11F0804F94
:1003A00018BF00F8012B70477047704770477546BB
:1003B00000F02CF8AE4605006946534620F00700D1
:1003C000854618B020B5FFF73FFFBDE820404FF04D
:1003D00000064FF000074FF000084FF0000B21F02F
:1003E0000701AC46ACE8C009ACE8C009ACE8C009FC
:1003F000ACE8C0098D46704710B50446AFF30080E5
:100400002046BDE81040FFF70ABF000000487047D3
:100410002811002001491820ABBEFEE7260002008B
:100420007047FEE77047022000F02CB872B6FEE776
:1004300010B5022819D10D4800F0EAFF0C4800F071
:10044000BFFF0C4940F28F100968886308490020FB
:100450000968486209489FED080A80ED000A9FED8F
:10046000080A00F5FA6080ED000A10BD0C100020AB
:10047000C00F0020581000208FC20541200000202E
:1004800000000000044910B50A68024202D008606A
:10049000FFF7CEFF10BD0000140401402DE9FC4F12
:1004A000DFF884A1002301250AF1040B03244FF097
:1004B0000F0C0BF1040EB0E005FA03F73A406ED0D2
:1004C0004E68012E05D0022E03D0112E01D0122E1F
:1004D00017D1D0F808905E0004FA06F829EA080956
:1004E0000096D1F80C8008FA06F848EA0908C0F826
:1004F00008804668BE430F79C7F300179F40374313
:100500004760C6684FEA430804FA08F7BE430197FC
:100510008F6807FA08F73743C7604E68022E01D08C
:10052000122E10D1DE0800EB86060096366A5F07B1
:100530004FEAD7690CFA09F7BE430F6907FA09F7C2
:100540003743009E37620668019FBE430F7907F06C
:10055000030707FA08F7374307604E68F6005BD5D4
:10056000324E376E47F001073766366E23F00307C9
:1005700006F0010600962E4E3E44B146B6689F072F
:100580004FEA17780CFA08F7BE43B0F1904F04D049
:10059000284FB84204D101270DE000270BE03BE0D3
:1005A000254FB84201D1022705E0244FB84201D1BE
:1005B000032700E0072707FA08F73743C9F8087050
:1005C000DAF800605746D1F8048096435FEAC838ED
:1005D00000D516433E60DBF800605F46D1F804802A
:1005E00096435FEA883800D516433E60DEF8006027
:1005F0007746D1F8048096435FEAC82800D51643B1
:100600003E60094F0C373E68D1F8048096435FEA9C
:10061000882800D516433E605B1C0E683246DE40DB
:100620007FF44AAF00F00CB8000401400010024013
:10063000000001400004004800080048000C004889
:100640001CBCBDE8E08F0AB18161704781627047D0
:10065000014880687047000010000020024881684F
:1006600002781144816070471000002010B500240A
:10067000032000F071F80F2000F008F808B1012401
:1006800001E000F025F8204610BD000070B50E4EC8
:1006900005460024307898B14FF47A71B1FBF0F040
:1006A0000A490968B1FBF0F000F084FD40B9102D53
:1006B00006D200222946501E00F02EF8756000E098
:1006C0000124204670BD0000100000201C00002006
:1006D000094808B5016E41F001010166016E01F0A3
:1006E00001010091816D41F080518165806D00F0C4
:1006F0008050009008BD000000100240002809DB77
:1007000000F01F02012191404009800000F1E0202B
:10071000C0F8001170470000F0B40E4B1B680C4687
:10072000C3F30223C3F10705042D00D90425191DC5
:10073000072901D2002300E0DB1E012606FA05F19D
:10074000491E214099409E40761E16403143F0BC20
:1007500001F079BF0CED00E0064900F007020868DF
:100760004FF6FF03184040EA0220034A1043086096
:10077000704700000CED00E00000FA051649B0F5E6
:10078000007F0868C0F3412009D0022805D008681E
:1007900020F4C06040F480600860002070470128A9
:1007A000FBD0086820F4C06040F4007008600B487B
:1007B0003222006850430A4AB0FBF2F0401C00E0CD
:1007C000401E4A69520501D50028F9D14869400503
:1007D000E3D5032070470000007000401C0000209B
:1007E00040420F000248006800F4C06070470000FB
:1007F000007000402DE9F843044600680026774D5C
:1008000080035ED5A86D0027C00008D4A86D40F015
:100810008050A865A86D012700F080500090DFF897
:10082000C091D9F8001041F48071C9F80010FFF7A9
:100830000FFF804606E000BFFFF70AFFA0EB0800AD
:1008400002282BD8D9F80000C005F5D5D5F89000BE
:1008500010F4407014D0216B814211D0D5F8900073
:10086000D5F8901020F4407041F48031C5F8901014
:10087000D5F8901021F48031C5F89010C5F890009B
:10088000C00711D0FFF7E4FE804641F2883907E047
:10089000FFF7DEFEA0EB0801494501D903260BE076
:1008A000D5F890008007F3D5D5F89000216B20F49F
:1008B00040700843C5F890001FB1A86D20F080502B
:1008C000A8652078C00707D0D5F88800616820F0B7
:1008D00003000843C5F888002078800707D5D5F8BD
:1008E0008800A16820F00C000843C5F88800207833
:1008F000400707D5D5F88800E16820F030000843AC
:10090000C5F888002078800607D5D5F888002169C9
:1009100020F440600843C5F888002088800507D58A
:10092000D5F88800216A20F440200843C5F88800E3
:100930002088400507D5D5F88800616A20F440106A
:100940000843C5F888002078400607D5D5F8880008
:10095000616920F440500843C5F8880020780006FB
:1009600007D5D5F88800A16920F440400843C5F8B0
:1009700088002088C00507D5D5F88800E16920F4F3
:1009800040300843C5F8880020884FF0006180049B
:100990000ED5D5F88800A26A20F040601043C5F853
:1009A0008800A06A884203D1E86840F48010E860BB
:1009B000206840030ED5D5F88800E26A20F0406038
:1009C0001043C5F88800E06A884203D1E86840F423
:1009D0008010E8603046BDE8F88300000010024057
:1009E000007000402DE9F0470F46050058D0404EFA
:1009F000306800F00700B84209D2306820F00700E4
:100A000038433060306800F00700B84248D1287899
:100A1000384CC0072CD06868032811D0022812D0A7
:100A2000216898B1490500293ADAA16821F003014B
:100A30000143A160FFF70CFE804641F2883910E0C7
:100A400021688901EFE721688903ECE78907EAE774
:100A5000FFF7FEFDA0EB0801494502D90320BDE8E0
:100A6000F087A068696800F00C00B0EB810FEFD14F
:100A70002878800705D5A068A96820F0F000084311
:100A8000A060306800F00700B8420BD9306820F051
:100A9000070038433060306800F00700B84201D0EA
:100AA0000120DCE72878400705D5A068E96820F434
:100AB000E0600843A0602878000706D5A06829698F
:100AC00020F4605040EAC100A06000F03FF8A16847
:100AD000094AC1F30311515C01F01F01C8400749E5
:100AE000086007480068BDE8F047FFF7CFBD000089
:100AF0000020024000100240DC2C00081C000020F6
:100B0000140000200548064900688968054AC1F3B9
:100B10000221515C01F01F01C84070471C000020F9
:100B2000001002401C2D000805480649006889682D
:100B3000054AC1F3C221515C01F01F01C840704752
:100B40001C000020001002401C2D000870B5254933
:100B5000002318468A68CC6812F00C0204F00306E1
:100B6000214C4FEA640509D00C2A05D0042A32D062
:100B7000082A00D1284670BD012E10D10B681B0732
:100B800004D4D1F89430C3F3032302E00B68C3F319
:100B90000313164E56F82330DAB10C2AEBD1C8688D
:100BA00000F00300022818D0032818D01846CA689D
:100BB000CB68C2F30212C3F306234343521CB3FBB8
:100BC000F2F2C868C0F34160401C4000B2FBF0F094
:100BD00070BD184670BD204670BD2046E7E7284628
:100BE000E5E70000001002400024F400EC2C0008AF
:100BF0002DE9F84304006FD0FE4DA86800F00C0604
:100C0000E86800F003072078C00664D576B10C2EA2
:100C100001D1012F0AD0E069002828687AD040F07D
:100C200001002860FFF714FD80465DE0286880071A
:100C300002D5E0690028DED0616A2868000703D584
:100C4000286800F0F00004E0D5F89400F02202EAF1
:100C50001010814216D9084601F07CF800283BD1DB
:100C6000286840F0080028602868616A20F0F000D9
:100C7000084328606868216A20F47F4040EA012028
:100C8000686016E0286840F0080028602868616AFB
:100C900020F0F000084328606868216A20F47F4053
:100CA00040EA0120686026B9606A01F053F8002824
:100CB000D5D1FFF74BFFA968CF4AC1F30311515CAF
:100CC00001F01F01C840CD490860CD480068FFF71A
:100CD000DDFC00287ED12EE0C4E000BFFFF7B8FCA9
:100CE000A0EB0800022876D828688007F6D5286887
:100CF00040F0080028602868616A20F0F00008438E
:100D000028606868216A20F47F4040EA012068601A
:100D100011E0FFE720F001002860FFF799FC804612
:100D200006E000BFFFF794FCA0EB08000228DAD829
:100D300028688007F6D42078C00740D0082E18D045
:100D40000C2E01D1032F14D06068B0F5803F17D06E
:100D5000B0F5A02F286817D020F4803028602868CC
:100D600020F4802028606068E0B1FFF771FC8046C5
:100D700014E02868800322D56068002872D01EE045
:100D8000286840F48030EDE740F480202860F7E7E1
:100D9000FFF75EFCA0EB08006428A4D82868800355
:100DA000F6D50CE0FFF754FC804605E0FFF750FC59
:100DB000A0EB0800642896D828688003F6D4207831
:100DC00080073BD5042E11D00C2E01D1022F0DD05F
:100DD000E06801E0E2E117E1002828681ED040F455
:100DE00080702860FFF734FC07460CE02868400557
:100DF0000CD5E0680028C1D008E000BFFFF728FC50
:100E0000C01B022893D828684005F7D56868217C64
:100E100020F0FE4040EA016068600FE020F480703E
:100E20002860FFF715FC074605E000BFFFF710FC40
:100E3000C01B0228B1D828684005F7D420780007E5
:100E400053D560690028D5F894003DD0A16900F021
:100E50001002914223D081074FEAC07003D50028C9
:100E60008CD001E071E190B1D5F8940020F0010040
:100E7000C5F89400FFF7ECFB074604E0FFF7E8FB3A
:100E8000C01B112889D8D5F894008007F6D4D5F86E
:100E90009400A16920F010000843C5F89400D5F82B
:100EA000940040F00100C5F89400FFF7D1FB07461D
:100EB00005E000BFFFF7CCFBC01B1128A2D8D5F876
:100EC00094008007F6D510E020F00100C5F89400EA
:100ED000FFF7BEFB074604E0FFF7BAFBC01B112873
:100EE00090D8D5F894008007F6D42078400778D5BC
:100EF000A86D0027C00008D4A86D40F08050A865F8
:100F0000A86D012700F0805000903E480168C90597
:100F100012D40168814641F480710160FFF798FBAB
:100F2000804605E0FFF794FBA0EB080002286BD891
:100F3000D9F80000C005F5D5A068C10720D0D5F8C4
:100F4000901000F0800021F080010143C5F890105E
:100F5000207A400705D5D5F8900040F00400C5F888
:100F60009000D5F8900040F0010000BFC5F8900057
:100F7000A06841F28839D0B1FFF76AFB804611E0E2
:100F8000D5F8900020F00100C5F89000D5F8900049
:100F900020F00400EAE700BFFFF75AFBA0EB0801CE
:100FA000494531D8D5F890008007F5D514E0FFF712
:100FB0004FFB804606E000BFFFF74AFBA0EB0801AD
:100FC000494521D8D5F890008007F5D4D5F8900090
:100FD00020F08000C5F890001FB1A86D20F080506F
:100FE000A8652078800634D5A06A0028D5F8980036
:100FF0001ED00AE000100240DC2C00081C0000207B
:1010000014000020007000408CE040F00100C5F8A2
:101010009800FFF71DFB074605E000BFFFF718FB30
:10102000C01B02287ED8D5F898008007F6D510E0BE
:1010300020F00100C5F89800FFF70AFB074604E01E
:10104000FFF706FBC01B02286CD8D5F89800800774
:10105000F6D4E06AE8B3022811D00C2E75D02868C7
:1010600020F080702860E86820F00300E860E868FD
:1010700020F08870E860FFF7EBFA044690E0E8683B
:10108000226B00F0030191421FD1616B00F07002EE
:1010900009011039914218D1A26B00F4FE41B1EB65
:1010A000022F12D1A18F00F4C00249084905A1F511
:1010B0000011914209D194F8401000F0C060490835
:1010C0004906A1F10071814249D00C2E6DD02868EB
:1010D00000E05BE020F080702860FFF7B9FA064678
:1010E00005E000BFFFF7B4FA801B022855D8286836
:1010F0008001F7D4D4E90C016FF00F0202EB01116B
:101100000843A18F5204490802EB4151A26B41EA06
:101110000221084394F840104FF07E42490802EB48
:10112000416100E039E00843E968214A1140084381
:10113000E860286840F080702860E86840F08070BF
:10114000E860FFF785FA044605E02EE0FFF780FA35
:10115000001B022821D828688001F7D523E02868E1
:10116000800120D4286840F080702860E86840F052
:101170008070E860FFF76CFA044604E0FFF768FA55
:10118000001B022809D828688001F7D50BE000BFB2
:10119000FFF75EFA001B022802D90320BDE8F8839E
:1011A00028688001F4D40020F8E70120F6E7000069
:1011B0008C809FF910B5401EB0F1807F01D30120D3
:1011C00010BD4FF0E02460610F21601701F03BFA81
:1011D0000020A06107202061002010BD70477047EB
:1011E0007047000030B590F83C20012A37D001222A
:1011F00080F83C20CA688C6822F4407222434C6814
:1012000022F4806222430C6822F4006222430C69BB
:1012100022F4805222434C6922F4005222438C6A09
:1012200022F4804222430C8B22F4702242EA0442D0
:101230000C4D04680023AC420CD18D8C22F470025A
:1012400042EA0552CD6922F080722A43096A22F0EF
:1012500000720A43626480F83C30002030BD0220F6
:1012600030BD0000002C0140F0B590F83C20012A70
:1012700029D0012480F83C40022280F83D200368F8
:101280005A689D68114EB34203D122F470074A6830
:101290003A4322F070070A683A435A600268B24241
:1012A00005D0B2F1804F02D0094B9A4204D189682F
:1012B00025F080031943916080F83D40002180F8BB
:1012C0003C100846F0BD0220F0BD0000002C01409B
:1012D0000040014010B5040003D094F83D0010B167
:1012E00007E0012010BD002084F83C00204600F0FB
:1012F00023F8022084F83D00211D206800F0C8FD7D
:10130000012084F8480084F83E0084F83F0084F807
:10131000400084F8410084F8420084F8430084F8D7
:10132000440084F8450084F8460084F8470084F8B7
:101330003D00002010BD000010B586B00446142109
:101340006846FFF70AF821681B48B1F1804F14D0B6
:101350001A4A91420FD1816D41F010018165806D73
:10136000002200F01000059011463620FFF7D4F956
:101370003620FFF7C3F906B010BD816D41F00101C1
:101380008165816D01F001010591C16C41F00101A0
:10139000C164C06C022100F0010005900120CDE97C
:1013A000000100210291CDE9031069464FF0904001
:1013B000FFF774F8DFE70000001002400010004063
:1013C00090F83D10012901D001207047022180F8DA
:1013D0003D1000680B49884205D0B0F1804F02D023
:1013E0000949884207D18168084A1140062906D078
:1013F000B1F5803F03D0016841F001010160002098
:1014000070470000002C014000400140070001002F
:1014100090F83D10012901D001207047022180F889
:101420003D100168CA6842F00102CA6000680B49B9
:10143000884205D0B0F1804F02D00949884207D1D7
:101440008168084A1140062906D0B1F5803F03D0D3
:10145000016841F00101016000207047002C01404B
:10146000004001400700010001680A6A41F21113BF
:101470001A4207D10A6A9B101A4203D10A6822F065
:1014800001020A60012180F83D10002070470168C8
:10149000CA6822F00102CA6001680A6A41F21113A7
:1014A0001A4207D10A6A9B101A4203D10A6822F035
:1014B00001020A60012180F83D100020704770474A
:1014C00070B50446006801694FF00005C9438907FB
:1014D00015D4C168C943890711D4E91E01610120EF
:1014E0002077206880698007204602D0FFF7E7FF59
:1014F00004E000F0CFF8204600F0A2F9257720683C
:101500000169C943490717D4C168C943490713D4BE
:101510006FF004010161022020772068806910F4D7
:10152000407F204602D0FFF7CAFF04E000F0B2F887
:10153000204600F085F9257720680169C94309072D
:1015400016D4C168C943090712D46FF008010161BC
:10155000042020772068C0698007204602D0FFF76A
:10156000AEFF04E000F096F8204600F069F9257718
:1015700020680169C943C90617D4C168C943C906AF
:1015800013D46FF010010161082020772068C06932
:1015900010F4407F204602D0FFF791FF04E000F0F6
:1015A00079F8204600F04CF9257720680169C94395
:1015B000C90708D1C168C943C90704D1891E01619F
:1015C000204600F0A7F920680169C943090609D43B
:1015D000C168C943090605D46FF080010161204646
:1015E000FFF7FDFD20680169C943C90509D4C16839
:1015F000C943090605D46FF4807101612046FFF7E5
:10160000EDFD20680169C943490609D4C168C94391
:10161000490605D46FF040010161204600F00DFA43
:1016200020680169C94389060BD4C168C94389068A
:1016300007D46FF0200101612046BDE87040FFF73C
:10164000CFBD70BD10B586B0044614216846FEF7C4
:1016500084FE0E492068884216D10D48C16C41F0C5
:101660000101C164C06C694600F0010005900820CA
:101670000090022001900020029003900E20049020
:101680004FF09040FEF70AFF06B010BD0040014049
:1016900000100240704770B5044690F83C000D46BB
:1016A00001280BD0012084F83C000C2A45D007DC2F
:1016B0005AB1042A1BD0082A78D12CE0022070BD30
:1016C000102A4ED0142A71D15DE0206800F02EFC63
:1016D0002068816941F0080181612068816921F0F9
:1016E00004018161206881692A69114311E0206841
:1016F00000F058FC2068816941F400618161206834
:10170000816921F480618161206881692A6941EAE7
:10171000022181614AE0206800F080FC2068C169F4
:1017200041F00801C1612068C16921F00401C16173
:101730002068C1692A69114311E0206800F0A8FC03
:101740002068C16941F40061C1612068C16921F468
:101750008061C1612068C1692A6941EA0221C161D1
:1017600024E0206800F0C4FC2068416D41F00801CD
:1017700041652068416D21F0040141652068416D9B
:101780002A69114311E0206800F0E0FC2068416DF7
:1017900041F4006141652068416D21F4806141653B
:1017A0002068416D2A6941EA02214165002084F8E0
:1017B0003C0070BD10B5040003D094F83D0010B19A
:1017C00007E0012010BD002084F83C00204600F016
:1017D00023F8022084F83D00211D206800F058FB0A
:1017E000012084F8480084F83E0084F83F0084F823
:1017F000400084F8410084F8420084F8430084F8F3
:10180000440084F8450084F8460084F8470084F8D2
:101810003D00002010BD000008B500680649884260
:1018200008D10648016E41F480310166006E00F473
:101830008030009008BD00000040014000100240D0
:101840007047000010B50446022269B1042912D085
:10185000082917D00C291CD0102921D094F8430056
:10186000012824D0012010BD94F83E000128F9D1B0
:1018700084F83E201DE094F83F000128F2D184F85E
:101880003F2016E094F840000128EBD184F8402076
:101890000FE094F841000128E4D184F8412008E0E9
:1018A00094F842000128DDD184F8422001E084F858
:1018B00043200122206800F021FB12492068124ACF
:1018C000884204D0904202D0104B984203D1436C1E
:1018D00043F4004343642068884204D0B0F1804F51
:1018E00001D0904207D18168094A1140062906D0EB
:1018F000B1F5803F03D0016841F001010160002093
:1019000010BD0000002C0140004001400044014097
:10191000070001002DE9F04125492DED028B884299
:1019200036D1244C00272588B5F5FA7F34D22248D9
:101930000668706A606001F043F89FED208B53ECFD
:10194000182B01F051F89FED1F1B53EC112B00F0E9
:10195000DFFE00F0ABFEA06001F044F99FED1B1B21
:1019600053EC112B01F040F853EC182B00F0D0FE93
:1019700000F09CFEE060776217499FED160A01EBCC
:10198000850181ED000A154941F825006D1C25806F
:10199000BDEC028BBDE8F0810548FFF778FD0648F5
:1019A000FFF762FD0E480068876301202080EFE7A3
:1019B0000C10002000000020C00F002000000000DC
:1019C00000004E40B81E85EB51B8DE3F7A008BFC1C
:1019D000FA2119408FC2054120000020F0070020A5
:1019E0005810002070B5044690F83C00012812D031
:1019F000012584F83C50022084F83D00204600F088
:101A0000D3FB01004FF0000007D084F83D5084F86C
:101A10003C00012070BD022070BD2168CA6822F020
:101A20004002CA602168CA6822F48042CA6084F811
:101A30003D5084F83C00002070BD704710B5040094
:101A400002D0A06F10B107E0012010BD002084F883
:101A50007400204600F026F82420A0672068016862
:101A600021F001010160204600F09AFC0128ECD031
:101A7000606A10B1204600F000FC2068416821F443
:101A8000904141602068816821F02A0181602068CE
:101A9000016841F0010101602046BDE8104000F0FE
:101AA00050BC0000F0B593B0044614216846FEF720
:101AB00054FC342105A8FEF750FC1C4920688842DC
:101AC00032D10224002605A807960594FEF792FE5F
:101AD00008B1FEF7ABFC1648816D41F40031816519
:101AE000816D01F400311291C16C41F00101C164BA
:101AF000C06C032500F00100129004208DE8510015
:101B00000720CDE903504FF0904769463846FEF76D
:101B1000C5FC4FF40040CDE90004CDE902656946FB
:101B200004953846FEF7BAFC13B0F0BD00440040FF
:101B300000100240FEE7000030B587B0142168466F
:101B4000FEF70BFC1A48C16C41F00101C164C16C85
:101B500001F001010591C16C41F00201C164C06C4A
:101B6000144D00F00200059000224A212846FEF79D
:101B70006AFD0220009010480024CDE90104694666
:101B80004FF09040FEF78AFC4A2000900120CDE9FA
:101B90000104694628460394FEF780FC00221146A2
:101BA0000720FEF7B9FD0720FEF7A8FD07B030BDFE
:101BB00000100240000400480000211010B596B04B
:101BC0000024129413941C210BA81494FEF7C5FB57
:101BD0002C216846FEF7C1FB20481F490160072100
:101BE000C0E9011440F28F11C0E90314446184611B
:101BF000FFF7E0FD08B1FEF719FC129412A917488F
:101C00001494FFF731FB08B1FEF710FC6020CDE91A
:101C10000B040D940E940F94109404220BA90F48FA
:101C20001194FFF738FD08B1FEF700FC00944FF463
:101C30000050CDE90440019402940394694607489A
:101C40000A94FFF7CFFA08B1FEF7F0FB0348FFF75D
:101C5000F9FC16B010BD00000040014058100020F3
:101C600010B588B014216846FEF777FB00241548AC
:101C7000059406944FF080410794C0E90014611E5A
:101C8000C0E9024104618461FFF724FB08B1FEF75B
:101C9000CDFB072000905020CDE90104694609489A
:101CA0000494FFF79FFE08B1FEF7C0FB059405A959
:101CB00004480794FFF7D8FA002801D0FEF7B6FBD6
:101CC00008B010BDC00F00203EB500240F4800949E
:101CD00001940D49029401604F21C0E9011440F6BE
:101CE0009F718461C160FFF7F5FA08B1FEF79EFBB2
:101CF0000094694605480294FFF7B6FA002801D01F
:101D0000FEF794FB3EBD0000001000400C100020C8
:101D10000D4810B50B4901604FF4E13141600021DD
:101D200081600C22C160C0E904128161C16101625D
:101D30004162FFF783FE002803D0BDE81040FEF7A4
:101D400075BB10BD00440040A4100020FEE7FEE774
:101D500070470000F8B51C4D06460024A86DC00071
:101D600002D5FEF73FFD0DE0A86D40F08050A8655C
:101D7000A86D00F080500090FEF734FDA96D21F0B1
:101D80008051A965B0F5007F04D0802E07D94FF0AF
:101D900003040AE0802E08D9A02E01D804E001D166
:101DA000022402E0702E00D101240848016821F0CD
:101DB000070121430160006800F00700A04201D044
:101DC0000120F8BD0020F8BD0010024000200240B4
:101DD0007047FEF743BC10B596B044216846FEF745
:101DE000BCFA142111A8FEF7B8FA4FF40070FEF700
:101DF000C5FC08B172B6FEE7002460211020CDE9D1
:101E000008410090012007900221CDE90B100D90B0
:101E10002820CDE90E0168461091FEF7E9FE08B1D1
:101E200072B6FEE70F2011900320CDE9120414943E
:101E3000042111A81594FEF7D5FD002801D072B633
:101E4000FEE716B010BD00000B48016841F47001B8
:101E500001600A48016841F00101016000218160D0
:101E60000268074B1A4002608214C260026822F4C2
:101E7000802202608161704788ED00E0001002401E
:101E8000FFFFF6EA0148FFF71BBB00000C10002023
:101E900070B50268164B4FF08046984201D0B042B0
:101EA00003D122F070044A682243124C124D98422A
:101EB00005D0B04203D0A04201D0A84203D122F401
:101EC0004076CA6832434E6922F080023243026093
:101ED0008A68C2620A688262984203D0A04201D036
:101EE000A84201D1096901630121416170BD00006F
:101EF000002C0140004001400044014010B501F0B9
:101F00001F030121046A99408C430462016A9A40CC
:101F10001143016210BD10B5846842EA032224F423
:101F20007F440A432243826010BD0000F0B5026A7C
:101F300022F001020262056A43688269154C25F0AD
:101F4000020522400C6822F0030214438A68134EF3
:101F50002A43114D124FA84203D0B04201D0B842DB
:101F600006D122F0080CCA6842EA0C0222F00402F0
:101F7000A84203D0B04201D0B84205D14D6923F444
:101F800040731D438B692B434360846149684163FF
:101F90000262F0BD8FFFFEFF002C014000400140B7
:101FA0000044014030B5026A22F010020262046A65
:101FB00042688369154D2B400D6823F4407343EA52
:101FC000052524F020038C6843EA0413104CA0423A
:101FD00007D1CC6823F0800343EA041323F04003C5
:101FE00005E00C4CA04202D00B4CA04207D14C693A
:101FF00022F4406242EA84028C6942EA840242602E
:10200000856149688163036230BD0000FF8FFFFE78
:10201000002C0140004001400044014030B5026AFC
:1020200022F480720262046A4268C369144D2B4034
:102030000D6823F003031D4324F400738C6843EA06
:102040000423104CA04207D1CC6823F4006343EA78
:10205000042323F4806305E00B4CA04202D00B4C18
:10206000A04207D14C6922F4405242EA04128C6922
:1020700042EA04124260C5614968C163036230BD2F
:102080008FFFFEFF002C0140004001400044014052
:1020900030B5026A22F480520262046A4268C3695F
:1020A0000F4D24F400542B400D6823F4407343EA91
:1020B00005238D6844EA05340A4DA84205D00A4D2F
:1020C000A84202D0094DA84204D14D6922F48042B1
:1020D00042EA85124260C36149680164046230BD0E
:1020E000FF8FFFFE002C01400040014000440140F2
:1020F00030B5026A22F480320262046A4268436D9B
:102100000E4D2B400D681D4324F400330C8943EA27
:1021100004430B4CA04205D00A4CA04202D00A4C0A
:10212000A04204D14C6922F4803242EA0422426087
:10213000456549688165036230BD00008FFFFEFF81
:10214000002C0140004001400044014030B5026ACB
:1021500022F480120262046A4268436D0E4D24F438
:1021600000142B400D6843EA05230D8944EA055409
:102170000A4DA84205D00A4DA84202D0094DA842F6
:1021800004D14D6922F4802242EA852242604365EF
:102190004968C165046230BDFF8FFFFE002C01401D
:1021A000004001400044014010B50468A26822F0DC
:1021B00070034A681A431E4B1A400B681343A3600E
:1021C0004A6812F00F0F30D11211082A2DD2DFE821
:1021D00002F02C2C2C2C0B2127040B69D1E90221B5
:1021E0000068FFF798FE20E00A68052A10D0026810
:1021F000136A146A24F0010414620268946909697C
:1022000024F0F00444EA01119161006803620CE0DB
:10221000012010BD0A698968006800F00BF804E02D
:102220000A698968006800F016F8002010BD0000F7
:10223000F8FFFEFF10B5036A046A24F0010404628B
:10224000846924F0F00444EA021423F00A020A43E9
:102250008461026210BD10B5036A23F010030362AB
:102260008369046A23F4704343EA023224F0A00332
:1022700043EA01118261016210BD90F82410C90780
:1022800006D001684A68836A22F400321A434A6021
:1022900090F82410890706D501684A68C36A22F4B9
:1022A00080321A434A6090F82410490706D5016825
:1022B0004A68036B22F480221A434A6090F8241083
:1022C000090706D501684A68436B22F400421A43A5
:1022D0004A6090F82410C90606D501688A68836BA5
:1022E00022F480521A438A6090F82410890606D599
:1022F00001688A68C36B22F400521A438A6090F81E
:102300002410490611D501684A68036C22F4801232
:102310001A434A60016CB1F5801F06D101684A6812
:10232000436C22F4C0021A434A6090F82410090654
:1023300006D501684A68806C22F4002202434A6094
:102340007047F8B500260446C0F88060FEF780F9B3
:102350000546206800686FF07E47000708D52B46C9
:1023600000224FF400112046009700F019F960B9DF
:102370002068006840070AD52B4600224FF48001F0
:102380002046009700F00CF908B10320F8BD20208A
:10239000A067E067266684F874600020F8BD00003E
:1023A0002DE9F0410446016880682269E369104321
:1023B000626900251A431043714F0A68714B1A4035
:1023C00002430A6020684168E26821F440511143E9
:1023D00041602168A069B94201D0226A10438A682D
:1023E00022F4306202438A606749236867488B425F
:1023F0000DD1D0F8880010F0030006D0012847D096
:10240000022843D0032830D144E001212EE0604966
:102410008B420BD1D0F8880010F00C0034D0042887
:1024200036D0082832D00C281FD133E059498B42CE
:102430000BD1D0F8880010F0300025D0102827D01C
:10244000202823D0302810D124E0BB420DD1D0F871
:10245000880010F4406017D0B0F5806F18D0B0F548
:10246000006F13D0B0F5406F14D010214A4A0026F7
:102470004FF40040BB422DD171B102290FD0042985
:102480000FD0082972D10FE00021EFE70221EDE71C
:102490000421EBE70821E9E7FEF734FB03E01046EF
:1024A00002E0FEF753FBE0B3626802EB42018142B7
:1024B0005CD8B0EB023F59D8010E0302500818183F
:1024C00071410023FDF7D2FE344AA0F540719142DC
:1024D0004ED94BE0E3694FF6EF77834228D10929C3
:1024E00044D2DFE801F005080B430D4343431000DD
:1024F000FEF708FB06E0FEF717FB03E0104602E0DC
:10250000FEF724FB68B14100606801EB5001B1FBAC
:10251000F0F081B2A1F11000B84227D84FF6F07266
:1025200000E027E001EA0200C1F3420108431FE096
:1025300009291BD2DFE801F005080B1A0D1A1A1A37
:102540001000FEF7DFFA06E0FEF7EEFA03E01046B1
:1025500002E0FEF7FBFA68B1616800EB5100B0FBE6
:10256000F1F080B2A0F11001B94201D9012501E0DA
:102570002168C86066662846A666BDE8F08100004E
:1025800000800040F369FFEF003801400010024076
:1025900000440040004800400024F400FFFC0F000D
:1025A0002DE9F0479A4617460E4604464FF00009BB
:1025B0004FF02008089D39E0681C37D0FEF748F836
:1025C000A0EB0A00A84222D80DB320680168490791
:1025D0002CD5C069C043000528D421684FF40060A1
:1025E00008622068016821F4D07101602068816868
:1025F00021F001018160C4F87880C4F87C80C4F8BF
:10260000808000BF84F874900320BDE8F0872068C4
:10261000016821F4D07101602068816821F0010116
:102620008160C4F87880C4F87C80EBE72068C069DA
:1026300036EA000004D00020B842BDD00020E4E714
:102640000120F9E7FEE70907090E002804DB00F185
:10265000E02080F80014704700F00F0000F1E02047
:1026600080F8141D70470000FEF700F8FFF7B3FB79
:10267000FFF762FAFFF7F4FAFFF726FBFFF79EFA7F
:10268000FFF746FB074C012202212046FDF7DBFF46
:10269000002240212046FDF7D6FF04210248FFF723
:1026A000D1F8FEE7000400485810002021F0004255
:1026B000A2F16052B2F5801F01F0004328BFD2F1B1
:1026C0007F6C0BD95FEA001C43EAC20242EB5070F8
:1026D00018BF704728BF20F001007047B2F5801F77
:1026E000BCBF184670474FEA410C1CF5001F02D2D0
:1026F000084600F0EDBA70B500F020FA000000893D
:10270000FFF7F6BF4FF00040A0F5800070470000D3
:102710002DE9C04130B4DFF8A0C23CEA111418BF63
:102720003CEA131400F0EC8081EA03051CEA111462
:1027300044EAD57418BF1CEA131500F0C780A4EB57
:1027400005044FF0004545EAC12145EAC32341EAAB
:10275000505143EA525304F17F74994204F5003416
:102760004FEAC0204FEAC22208BF904200F09C808E
:102770004FEA13650FF24016765D4FEA134506FBEC
:1027800005F7C7F1807706FB07F74FEAD737A7FBB6
:1027900003687642C8F58038A7FB06CE38BFA8F19B
:1027A000010807FB08E64FF0000EA6FB028CE6FBD3
:1027B00003CEDCF1000CCEF1004E38BFAEF1010EBD
:1027C000A6FB0C584FF000074FF00005E6FB0E8704
:1027D000A1FB08C6A0FB07CE16EB0E0645F10005CF
:1027E000E1FB076515F1E04E7EBFA4F580345FEA9A
:1027F00046066D4116F1800745F100054FEA17279F
:102800004FEA066647EA0567A6F1DE46B6F1805F45
:102810004FEA15251FD9384624F0010C05EBC47189
:10282000BCF1FE6F01EB0C1102D8F0BCBDE80081D9
:1028300024425CBF01F5801E9EEAC47F02D4F0BC36
:10284000BDE80081244238D4F0BCA1F1C041BDE80C
:10285000004100F0C1B94FEAD22242EA43524FEAA6
:10286000D323A7FB02864FEAD02040EA415007FB62
:1028700003661EEA0E0F4FEAD12105FB026658BF20
:10288000A6EB0056B6EB00564FEA520E4EEAC37E58
:1028900018EB0E0E56EB530EBDD518EB02085E4139
:1028A0007F1C55F10005B6E74FF480154FF0000787
:1028B0004FF000064FF00008ADE7F0BC4FF000000D
:1028C00001F1C04101F00041BDE8008111EA0C1F97
:1028D0000CEA131500D00CE013EA0C1F00F0258061
:1028E0004FF00000F0BC81EA030101F00041BDE8B7
:1028F0000081F0BCBDE8004181EA030100F06CB941
:10290000F0BCBDE8004170B500F018F9097EFC3E4E
:1029100000F007B881EA03014FF0000001F0004128
:10292000704781EA030100F057B9F0BCBDE80041EF
:102930004FF0000021497047FFFDFBF9F7F5F4F275
:10294000F0EEEDEBE9E8E6E4E3E1E0DEDDDBDAD84A
:10295000D7D5D4D3D1D0CFCDCCCBCAC8C7C6C5C4A8
:10296000C2C1C0BFBEBDBCBBBAB9B8B7B6B5B4B3BF
:10297000B2B1B0AFAEADACABAAA9A8A8A7A6A5A4AA
:10298000A3A3A2A1A09F9F9E9D9C9C9B9A9999986E
:102990009797969595949393929191908F8F8E8E11
:1029A0008D8C8C8B8B8A898988888787868585849E
:1029B00084838382828181800000FF070000F87F8A
:1029C000B0FA80F310FA03F10AD0C3F11D0303F546
:1029D00080634FEA41504FEA035202EBD121704726
:1029E0004FF0000070470000DFF848C170B51CEAE6
:1029F000111E1EBF1CEA13159EEA0C0F95EA0C0F60
:102A000000F06F8081EA030423EA4C134EEAD47E7F
:102A100021EA4C1141F4801143F48013AE44A1FB30
:102A2000024CA0FB0365AEF17F7E361955EB0C0519
:102A3000A1FB034C4CF10003A0FB021C16EB0C069F
:102A4000654153F10003094218BF46F0010613F433
:102A5000007F0BD14FEA03314FEA0530340341EADE
:102A6000155140EA16506FF003020AE04FEAC32105
:102A70004FEAC520F40241EA555140EA56506FF042
:102A8000020202EB2E4201EB025585EACE710AD01A
:102A90005FEA440C18BF24F0004450F1000041F1FB
:102AA000000120EAD47040F2FE7C624500D270BD85
:102AB000A84214BF4FF080444FF04044002E08BF9E
:102AC0000024BEF1806FA8BFA1F1C041BDE87040F5
:102AD00080F282804FF0000001F1C04101F000411E
:102AE00070479EEA0C0F0CEA131518BF95EA0C0FFD
:102AF00006D04FF0000081EA030E0EF0004170BDD9
:102B000000F01CF88900013E00F007B800F009B899
:102B10004FEA430C5FEA5C5C08D081EA030100F0F5
:102B20005BB84FEA410C5FEA5C5CF6D14FF0000005
:102B3000014970470000FF070000F87F0EF1020E08
:102B40002EF0030E5EF8046B364205D4012A43EBE7
:102B5000030515F5001F12D8012841EB010C1CF5E7
:102B6000001F0CD80ED14FEAD17C15F5001F0CEBDD
:102B70004C0C0CF1020C08BF4CEBD37C04E04FF082
:102B8000080C01E04FEAD37C0CEB4C0526FA05F665
:102B900006F00706B6F1040C06D20EEB860CBDE873
:102BA00070404CF0010C6047DFE80CF0090B0202AA
:102BB0004FF000414FF00000A1F5002170BD194613
:102BC0001046012851EB010418BFD4F5001484BF4E
:102BD000002001F0004170BD0808A0F500114FEA87
:102BE0003101704743004FEAD30C4FEA3C0C43409D
:102BF0001FBF40070CF1605113F0FE4F70471CF0EF
:102C0000006F03D100200CF0004170470CF000432E
:102C100043EA507010B540EACC0000F00EF800BF57
:102C2000000000924FEA0001FFF7D6BF4FF00041CD
:102C30004FF00000A1F5002170470EF1020E2EF0BA
:102C4000030E5EF8044B244204D44FEA4102B2F171
:102C50007F4F11D84FEA4003B3F17F4F0CD80ED10C
:102C60004FEAD07CB2F17F4F0CEB4C0C0CF1020C14
:102C700008BF4CEBD17C04E04FF0080C01E04FEAB8
:102C8000D17C0CEB4C0324FA03F404F00704B4F1F8
:102C9000040C06D20EEB840CBDE810404CF0010C85
:102CA0006047DFE80CF0070802024FF00040A0F593
:102CB000800010BD0846420018BFD2F1807288BF64
:102CC00000F0004010BD4FF04070E1EE100A704778
:102CD000FF2141EAD050C00570470000000000000D
:102CE000000000000102030406070809A086010095
:102CF000400D0300801A060000350C0040420F0012
:102D000080841E0000093D0000127A000024F400B7
:102D100000366E010048E801006CDC020000000093
:102D200001020304442D00080000002020000000E0
:102D3000C8010008642D000820000020681700006A
:102D4000E401000801000000000000000000000095
:102D50000000000001000000100000000000000062
:042D600000093D0029
:040000050800018D61
:00000001FF
