:020000040800F2
:10000000680600202D0200083502000837020008AB
:10001000390200083B0200083D0200080000000011
:100020000000000000000000000000003F02000887
:1000300041020008000000004302000845020008D9
:10004000470200084702000847020008470200086C
:10005000470200084702000847020008470200085C
:10006000470200084702000847020008470200084C
:10007000470200084702000847020008470200083C
:10008000470200084702000847020008000000007D
:10009000000000000000000000000000470200080F
:1000A000470200084702000847020008470200080C
:1000B000470200080000000000000000470200089E
:1000C00047020008470200084702000847020008EC
:1000D00047020008470200084702000847020008DC
:1000E000470200084702000800000000000000006E
:1000F0000000000000000000000000000000000000
:1001000000000000000000000000000000000000EF
:10011000000000000000000047020008000000008E
:10012000470200084702000847020008470200088B
:10013000470200080000000000000000000000006E
:10014000470200084702000847020008470200086B
:10015000470200084702000847020008470200085B
:1001600047020008470200080000000000000000ED
:10017000000000004702000800000000000000002E
:1001800047020008470200084702000800F002F892
:1001900000F03CF80AA090E8000C82448344AAF1E5
:1001A0000107DA4501D100F031F8AFF2090EBAE8E3
:1001B0000F0013F0010F18BFFB1A43F0010318479B
:1001C0002407000044070000103A24BF78C878C113
:1001D000FAD8520724BF30C830C144BF04680C604D
:1001E000704700000023002400250026103A28BF95
:1001F00078C1FBD8520728BF30C148BF0B60704799
:100200001FB500F041FB1FBD10B510BD00F031F867
:100210001146FFF7F5FF00F01BFA00F04FF803B4AA
:10022000FFF7F2FF03BC00F057F8000009488047D1
:1002300009480047FEE7FEE7FEE7FEE7FEE7FEE7C8
:10024000FEE7FEE7FEE7FEE704480549054A064BE0
:1002500070470000AD0500088D010008680000200F
:10026000680600206802002068020020704770477E
:100270007047754600F02CF8AE46050069465346B7
:1002800020F00700854618B020B5FFF7DDFFBDE878
:1002900020404FF000064FF000074FF000084FF0ED
:1002A000000B21F00701AC46ACE8C009ACE8C0097E
:1002B000ACE8C009ACE8C0098D46704710B50446EB
:1002C000AFF300802046BDE81040FFF7A8BF000054
:1002D000004870470400002001491820ABBEFEE72B
:1002E00026000200704700003648C06C40F0010054
:1002F0003449C8640846C06C40F00200C86408462F
:10030000C06C40F00400C8644FF0904000682E4973
:1003100008404FF090410860084600682B490843A8
:100320004FF0904108600846406841F6FC11884350
:100330004FF09041486008468068234908404FF0DC
:10034000904188600846C0681F4908404FF09041BE
:10035000C8601F48006843F6034188431C49086091
:100360000846006841F20141084319490860081D28
:10037000006820F06100091D0860081D006843F650
:1003800003418843124908310860081D006843F69C
:10039000034188430E490C3108600D48006820F085
:1003A0000C000B4908600A480C30006820F00C0073
:1003B00007490C3108600846006840F008000860F2
:1003C00070470000001002400F003CFC50554101F6
:1003D0000004004810B53848806820F00300364912
:1003E00088600846006820F08070086000BF3248CE
:1003F000006800F000700028F9D12F48006840F430
:1004000080702D49086000BF2B48006800F48060B0
:100410000028F9D02848C06820F003002649C860A9
:100420000846C06840F00200C8600846C06820F076
:100430007000C8600846C06840F01000C8600846F8
:10044000C06820F4FE40C8600846C06840F4A05070
:10045000C8600846C06820F0C060C8600846C06830
:1004600040F08070C8600846006840F08070086006
:1004700000BF1148006800F000700028F9D00F4854
:10048000006820F007000D4908600846006840F049
:10049000040008600848806840F00300064988604E
:1004A00000BF0548806800F00C000028F9D000F07B
:1004B00007F8012010BD000000100240002002409B
:1004C000F0B5002300200022022400250221314E35
:1004D000366806F008062EB92E4E94363668C6F3F6
:1004E000032003E02B4E3668C6F303102A4E56F85D
:1004F0002000284EB66806F00C0636B1042E07D050
:10050000082E09D00C2E35D10AE0244E306034E09C
:10051000234E224F3E6030E0224E204F3E602CE0C2
:100520001C4EF66806F003051A4EF668C6F302166E
:10053000711C022D02D0032D08D103E0184EB6FB2A
:10054000F1F206E0174EB6FBF1F202E0B0FBF1F279
:1005500000BF00BF0F4EF668C6F3062672430D4E6D
:10056000F668C6F34166761C7400B2FBF4F60B4FD6
:100570003E6002E0094E306000BF00BF054EB66825
:10058000C6F30316084FBB5D044E3668DE40034FCA
:100590003E60F0BD00100240B408000800000020DA
:1005A0000024F40000127A009C080008104800683B
:1005B00040F470000E4908600E48006840F00100E9
:1005C0000C49086000208860084600680A49084015
:1005D000084908608814C8600846006820F4802034
:1005E000086000208861C8030149803908607047AD
:1005F00088ED00E000100240FFFFF6EA00224FF015
:10060000E0231A61114A12684FF47A73B2FBF3F2D5
:10061000521E4FF0E0235A6100229A611A46126975
:1006200042F005021A61002108E000BF4FF0E0220D
:10063000126902F48032002AF8D0491C8142F4D3B6
:1006400000224FF0E0231A617047000000000020F4
:10065000FFF7C0FEFFF748FE17E00C484178012085
:1006600000F016F80520FFF7C9FF0848817802203E
:1006700000F00EF80520FFF7C1FF0448C178032001
:1006800000F006F80520FFF7B9FFE6E7920800083A
:100690004FF09042926A42F480524FF090439A6237
:1006A000784A126842F04002764B1A601A46126885
:1006B00042F001021A6001F0010242B14FF0904293
:1006C000926942F020024FF090439A6107E04FF0A8
:1006D0009042926A42F020024FF090439A62C1F336
:1006E000400242B14FF09042926942F080024FF0D6
:1006F00090439A6107E04FF09042926A42F0800284
:100700004FF090439A62C1F3800242B14FF09042A1
:10071000926942F480724FF090439A6107E04FF083
:100720009042926A42F480724FF090439A62C1F311
:10073000C00242B14FF09042926942F400624FF021
:1007400090439A6107E04FF09042926A42F400624F
:100750004FF090439A62C1F3001242B1494A103AF5
:10076000126842F02002474B103B1A6005E0454AF0
:10077000126842F02002434B1A60C1F3401242B1AA
:100780004FF09042926942F010024FF090439A610C
:1007900007E04FF09042926A42F010024FF090430F
:1007A0009A62C1F3801242B14FF09042926942F0D6
:1007B00008024FF090439A6107E04FF09042926A2E
:1007C00042F008024FF090439A62012813D14FF093
:1007D0009042926942F480524FF090439A61294AC4
:1007E000126842F04002274B1A601A46126842F023
:1007F00001021A6044E0022816D14FF09042926A3A
:1008000042F480524FF090439A621E4A103A1268A6
:1008100042F040021B4B103B1A601A4A126842F029
:100820000102184B1A602BE0032816D14FF09042BA
:10083000926A42F480524FF090439A62114A1268D1
:1008400042F040020F4B1A600E4A103A126842F012
:1008500001020C4B103B1A6012E04FF09042926A7A
:1008600042F480524FF090439A62064A126842F076
:100870004002044B1A601A46126842F001021A60E4
:1008800070470000280400484FF04070E1EE100A65
:1008900070473F065B4F666D7D077F670000000075
:1008A0000000000001020304060708090000000020
:1008B00001020304A0860100400D0300801A060017
:1008C00000350C0040420F0080841E0000093D00EE
:1008D00000127A000024F40000366E010048E8019E
:1008E000006CDC0204090008000000200400000085
:1008F000C801000808090008040000206406000080
:08090000E401000800093D00BC
:040000050800022DC0
:00000001FF
