:020000040800F2
:1000000098080020510200080F3E0008F93B000844
:100010000D3E0008A11F0008F14800080000000084
:10002000000000000000000000000000A53E0008E5
:100030004121000800000000253E0008A73E0008FE
:100040006B0200086B0200086B0200086B020008DC
:100050006B0200086B0200086B02000843210008D5
:100060006B0200086B0200086B0200086B020008BC
:100070006B0200086B0200086B0200086B020008AC
:100080006B0200086B0200086B0200080000000011
:100090000000000000000000000000006B020008EB
:1000A0006B0200086B0200086B0200086B0200087C
:1000B0006B02000800000000000000006B02000856
:1000C0006B0200086B0200086B0200086B0200085C
:1000D0006B0200086B020008E54800086B0200088C
:1000E0006B0200086B020008000000000000000026
:1000F0000000000000000000000000000000000000
:1001000000000000000000000000000000000000EF
:100110000000000000000000593F0008000000003F
:100120006B0200086B0200086B0200086B020008FB
:100130006B0200080000000000000000000000004A
:100140006B0200086B0200086B0200086B020008DB
:100150006B0200086B0200086B0200086B020008CB
:100160006B0200086B0200080000000000000000A5
:10017000000000006B02000800000000000000000A
:100180006B0200086B0200086B02000800F002F826
:1001900000F04FF80AA090E8000C82448344AAF1D2
:1001A0000107DA4501D100F044F8AFF2090EBAE8D0
:1001B0000F0013F0010F18BFFB1A43F0010318479B
:1001C0004058000060580000103A24BF78C878C139
:1001D000FAD8520724BF30C830C144BF04680C604D
:1001E000704700000023002400250026103A28BF95
:1001F00078C1FBD8520728BF30C148BF0B60704799
:10020000662905F00F83002070471FB505F0FDFA41
:1002100000F0F4FB04000020002104F07FFD401CEE
:1002200060600020002104F063FDE0601FBD10B598
:1002300010BD00F02BFD1146FFF7E7FF04F012FDA3
:1002400000F0D6FF03B4FFF7F2FF03BC01F01AF889
:100250000948804709480047FEE7FEE7FEE7FEE75A
:10026000FEE7FEE7FEE7FEE7FEE7FEE70448054996
:10027000054A064B704700001D3F00088D0100082D
:10028000980200209808002098040020980400207C
:1002900053EA020C00F069802DE9F04B4FF00006A4
:1002A000002B1FBFB3FA83F503FA05F424FA05F611
:1002B0005E4012BF1643B2FA82F502FA05F4C5F1A8
:1002C00020051EBF22FA05FC44EA0C04203556EA3C
:1002D000044C4FEA144418BF641C4FF000084FF060
:1002E0000009904271EB030C39D3002919BFB1FA10
:1002F00081F701FA07F6B0FA80F700FA07F6C7F1BE
:1003000020071EBF20FA07FC46EA0C062037B6FB82
:10031000F4FCA7EB0507103F07F01F0BCBF12006FD
:100320000CFA0BFB2CFA06F644BFB3460026202F2E
:10033000A4BF5E464FF0000B5BEA060C08BF4FF00F
:10034000010B19EB0B09ABFB027C48EB0608C01B49
:1003500006FB02CC0BFB03CC71EB0C01C1E70B4697
:10036000024641464846BDE8F08B13B54FF0000009
:100370004FF00001AFF30080BDE81C407047000063
:100380000FB4044910B503AA029800F0D3FA10BCC8
:100390005DF814FB000000202DE9F0474FF0000A43
:1003A00089460446C0F820A02046E1688847002816
:1003B00076D0252806D0D4E901219047206A401C38
:1003C0002062F1E7E168204600258847C4F81CA0B8
:1003D00006460027C4F818A02A2E09D0304604F09B
:1003E000E6FB38B304EB8708303EC8F8186019E024
:1003F00059F8041B204604EB87029161E1688847A5
:10040000012F064618D1E069002820DA25F02005E2
:100410001DE0D8F8180000EB800006EB40003038F3
:10042000C8F818002046E1688847064604F0BFFB7C
:100430000028EED1012F0AD02E2E08D12046E168E7
:1004400088477F1C0646022F45F02005C4DBA069C3
:10045000002803DA404245F00105A061E80701D019
:1004600025F01005B6B1A6F14100192802D82036B2
:1004700045F400654A463146204625604D46FFF763
:10048000BFFE58B1012806D0ED1D25F0070000F190
:10049000080989E704E005F1040985E730468AE7A1
:1004A000206ABDE8F0874FF0000200B5134694467D
:1004B0009646203922BFA0E80C50A0E80C50B1F1BC
:1004C0002001BFF4F7AF090728BFA0E80C5048BFD0
:1004D0000CC05DF804EB890028BF40F8042B08BF6E
:1004E000704748BF20F8022B11F0804F18BF00F86A
:1004F000012B704770477047704710B500F082FAC3
:10050000006810BD10B5044600F07CFA046010BD10
:1005100070472DE9FF4F0C461E464FF0FF378BB05A
:10052000D2E90001DDF860800A908A46C1F30A55DD
:1005300005B93D46002108464FF00000BAF1000F12
:1005400000F4400005DA00EB80004FF4400101EABE
:1005500050004FEA9059B9F1010F00DDB9460A98F1
:1005600050EA4A000ED044F61050A5F2FF3545433C
:100570002F14B8F1000F1ED07542291E1EDDC9F1DF
:1005800000021CE0B8F1010F4FF0000001D0302153
:1005900003E0F24305E02154401CB042FBDB30464F
:1005A0000022002121540B99C1F80880C1E90020E4
:1005B0000FB000F0BCB9BD1B6D1CDEE74A4600DA87
:1005C000694206A800F0E8FA06AB93E8070003AB1F
:1005D00083E8070050460A9901F0ADF88DE807005E
:1005E000A0F500501F3800900398002D0ADD42F25C
:1005F0001F014A460844002303A90390684601F0FE
:1006000059FB09E0A0F500504A461F38002303A912
:100610000390684601F078FB8DE807000004000CA9
:1006200003D04FF0FF30410800E01046B8F1000F52
:1006300003D00022009215461EE0751E05D400F07E
:10064000E5F9303262556D1EF9D5B34601220843F3
:1006500002D000227F1C04E02078302801D1002243
:100660007F1E002A099784D01DE0112D07DA00F0C3
:10067000CDF9303262556D1C50EA0102F5D10843C4
:1006800002D00098C8B10EE00021681E05E0235C8E
:10069000625C63542254401E491C8142F7DBAB4626
:1006A000A81B401E0990002004F80B000B98099A23
:1006B000C0F80880C0E9002B7AE711264FF0000847
:1006C00057E72DE9F04F88460446D21D22F0070176
:1006D00091B0D1E90001CDE90A0104F00AF902461E
:1006E0000B98C00F01D02D2007E02068810701D5AD
:1006F0002B2002E0202101EAC000032A099001D04A
:10070000072A05DB03464146204600F0E5F90BE1E8
:100710002078800601D5E06900E00620B8F1650F79
:10072000814606D0B8F1660F18D0B8F1670F70D1C6
:1007300031E00020B9F1110F009001DB112301E03D
:1007400009F101030AAA01A90CA8FFF7E2FEDDE9FD
:100750000C70002609F10105834647E001204B4655
:1007600000904FF000470AAA01A90CA8FFF7D1FE9C
:10077000DDE90DB00C995D46002610B909F10100C4
:100780000D18B9EB050003D4C0F1FF3609F10105DE
:10079000A5EB09002BE0B9F1010F01DA4FF00109D7
:1007A0000020B9F1110F0090484601DD112300E04F
:1007B00003460AAA01A90CA8FFF7ABFEDDE90C70FD
:1007C0004D4600268346207800070AD4AB4500DA60
:1007D0005D4601A8012D04DD411911F8011C3029E5
:1007E00007D04F4502DA17F1040F04DA01208246E0
:1007F0000FE06D1EEEE7002F02DCED1B3E4403E030
:10080000781CA84200DD7D1CB81B00F1010A4FF0E6
:1008100000472078000703D4AA4501DB4FF0FF3AD8
:100820000021B7F1004F0DF143088DF8431024D09B
:1008300002202B23002F01DA7F422D230A21021EE2
:10084000A0F1010000DC5FB197FBF1FC97FBF1F236
:1008500001FB1C7C17460CF1300C08F801CDEEE7CB
:10086000A8F1010003702188090501D5452100E0A8
:100870006521A0F1010800F8011C09980FA9A1EB5E
:100880000807FF1D00B10120411901EBEA70A169C1
:100890003844081A401EA0612078C00602D42046C1
:1008A000AFF30080099828B1D4E901219047206A6C
:1008B000401C20622078C00622D52046AFF300807D
:1008C0001EE0002E04DBB34502DD01A8805D00E0E0
:1008D0003020D4E901219047206A401C2062761C18
:1008E000AAF101005FEA000A0AD100F087F8C068A7
:1008F0000168405CD4E901219047206A401C2062D5
:10090000281EA5F10105DCDC07E0D4E9012118F877
:10091000010B9047206A401C2062381EA7F1010796
:10092000F3DC2046AFF30080032011B041E630BC79
:10093000BDE8C08F074B70B50D467B4400F0B9F899
:100940000446284600F09AF910B14FF0FF3070BD10
:10095000204670BD7F4200000FB4002300B589B06F
:100960000CA900910B99CB60214B7B440693214B42
:100970007B44079304236FF00042CDE901321E4A05
:100980007A446B4608920246002004F0ADFF09B09D
:100990005DF814FB70B506464FF0FF3015460C4667
:1009A000324686B00091CDE90101694600200490ED
:1009B00004A8FFF7D1FF02460498211825B108B119
:1009C000084600E020462860049800280DD0002A40
:1009D00002DD0098884208D03246081B6946009420
:1009E000CDE9010404A8FFF7B7FF06B070BD000011
:1009F000EB010000030200001301000000487047F3
:100A000054020020004870473402002030B5B0F195
:100A10000A024FEA900E71F100034EEA817EB0EBBC
:100A20000E0061EB91014FEA101E4EEA017E10EBC1
:100A30000E0041EB11114FEA102E4EEA016E10EB41
:100A40000E0041EB11214FEA104E4EEA014E10EB21
:100A50000E0041EB1141401841F100014FEAD00076
:100A600040EA41704FEAD10110EB80054FEA810462
:100A700044EA907444EB01046D1944EB0404521BE6
:100A8000A3414FF0000348BF0A3200D530BD401CDF
:100A900041F1000130BD10B5044600F01DF90068B9
:100AA000005D00F0010010BD01694A1C0261087878
:100AB000704700B58FB0CDE901310021059105499E
:100AC0007944CDE9031011466846FFF765FC0FB085
:100AD00000BD0000E5FFFFFF2DE9F0411F46044681
:100AE00003260168072A01F4006004DB08B116A59B
:100AF00005E016A503E008B115A500E015A521F055
:100B000010002060A069C01EA0610FB1401EA0614E
:100B10002046AFF300804FB1D4E901213846904719
:100B2000206A401C2062C01C206206E0206AFAE7AE
:100B3000D4E9012115F8010B9047761EF8D2204622
:100B4000AFF30080BDE8F0814E414E006E616E0053
:100B5000494E4600696E6600426842B1016811F86C
:100B6000013B23B1521EC0E9001218467047012113
:100B7000C160881E704742685AB1C368016843B9B2
:100B800083688B4205D0491E521CC0E90012002028
:100B900070474FF0FF3070472DE9F0478146164609
:100BA0008AB0354878440DC88DE80D003248784445
:100BB000801C03AC0DC884E80D0041F69B3008444E
:100BC000372190FBF1F290FBF1F5A5F1800501FBD7
:100BD00012041B3C02D56442012000E00020DFF833
:100BE00098A080460027FA44AAF1BE0A0EE0E0076A
:100BF0000AD03246684607EB470101230AEB810120
:100C000001F082F88DE8070064107F1C002CEED103
:100C1000194F7F44AE3F19E0E80715D007EB0410E9
:100C20000DF1180A90E80E008AE80E00C068F04244
:100C300001D1981908903246012306A903A801F0B2
:100C400063F803AB83E807006D10641C002DE3D14B
:100C50004FF0010332466946B8F1000F03A802D0F5
:100C600001F028F801E001F04FF8C9E90001C9F8E6
:100C700008200AB0BDE8F087404E0000007B00F07D
:100C80008000704700487047340200207546FFF727
:100C9000F9FFAE4605006946534620F00700854639
:100CA00018B020B5FFF7E2FABDE820404FF000068B
:100CB0004FF000074FF000084FF0000B21F0070144
:100CC000AC46ACE8C009ACE8C009ACE8C009ACE887
:100CD000C0098D467047000010B5FFF78FFE001D5C
:100CE00010BD00BF394000002DE9FF4F06468BB014
:100CF0000878FF2806D0491C2D2805D000244FF085
:100D0000000908E000200CE00124F8E709EB890362
:100D1000491C00EB43090878FF28F7D114B1C9F149
:100D200000008146107800252C46AA4629462D2829
:100D300001D02B2804D1521C2D2813D0002082462C
:100D40008B461078FF280FD04FF0000C0A21521C60
:100D5000A5FB017804FB018105FB0C11C5194BEBC8
:100D60000104EEE70120EAE7002108464FF0000009
:100D7000BAF1000F02D000EB80004008C0F38157A9
:100D8000012F01DD4FF0FF370E9955EA040009EB02
:100D900001080BD04FF0020918F5FA7F16DA4FEA76
:100DA000CA70002F706008DD012007E04FEACA70AA
:100DB000C6E900B00FB000F013BA00203060FFF7B2
:100DC00021FEC0F800901821084616E0B8F5FA7F19
:100DD00018DD002F02DAF748784401E0F64878443D
:100DE000D0E90010C6E9001040EACA707060FFF751
:100DF00009FEC0F80090142108460FB000F0F3B9C6
:100E000004F00DBD002108464FF00000B8F10001CC
:100E1000099002DAC7F1000200E03A4601DAC8F1AF
:100E2000000106A8FFF7B8FE06AB93E8070003AB86
:100E300083E8070044F23E005BEA04010090584654
:100E400004D144F21E012C465D460091210C090498
:100E5000014306D10099240444EA15442D041039B5
:100E6000009104F07F41014306D10099240244EA35
:100E700015642D020839009104F07041014306D138
:100E80000099240144EA15742D01091F009104F012
:100E90004041014306D10099A40044EA9574AD0095
:100EA000891E009104F00041084304D100986D1997
:100EB0006441401E00904FF001033A466846B8F185
:100EC000000FCDE9014503A902DD00F032FF01E08A
:100ED00000F005FFBAF1000F04460D4601D084F082
:100EE0000044002108464FF00000099940F2FF77C6
:100EF000484010F00C0F07D124F00040284303D0E5
:100F0000C4F30A50B84212D1FFF77CFDC0F800903C
:100F1000C4F30A50B8420AD1A8487844D0E9001076
:100F2000C6E9001004F000410843706042E7C6E9DA
:100F300000543FE72DE9FF4F1F464FF0000A4FF0E6
:100F4000FF38454691B0D7E90146CDF83CA0FFF700
:100F500055FDC0680168405C1090B96912986D1C1D
:100F60008847396A814688470028F6D1B9F1FF3FA2
:100F70000AD0002E24F4D06411DDB9F12B0F08D073
:100F8000B9F12D0F0BD102E0404615B013E744F440
:100F90008064B96912986D1C8847761E8146600589
:100FA00004A901D52D2000E02B20002E01F1010B1A
:100FB0000DF130088DF810003FDDB9F1690F08D050
:100FC000B9F1490F05D0B9F16E0F02D0B9F14E0F4A
:100FD0001CD13B4601A8009580E85002DDE91212C1
:100FE0006FF0020004F084FCC11CCED10EE0B969A0
:100FF00012986D1C884781461398761E44F400743D
:1010000005600F98401C002E0F9016DDB9F1300FCF
:10101000EDD0B9F1780F02D0B9F1580F0DD10F987A
:1010200001280AD13B46CDE90054DDE91212001F28
:10103000029604F05BFCC11CA7D1109989453ED1F2
:1010400044F0800406E01399681CAAF1010A44F4F4
:1010500000740860B9696D1C1298761E88473028A4
:101060008146F0D02BE01099894505D1200603D4A4
:10107000761E44F0800418E0484603F098FD08B35B
:10108000761E0DF123018B4544F4007408D2A9F1BA
:1010900030000BF8010B200607D5AAF1010003E090
:1010A000200602D40AF101008246A00502D5139958
:1010B000681C0860B96912986D1C88478146002E2B
:1010C000D1DC53E0002E51DDB9F1650F02D0B9F14A
:1010D000450F4BD1A00549D5B9696D1C1298761EF4
:1010E00024F440748847002E81460CDD2B2804D060
:1010F000B9F12D0F07D144F48074B96912986D1CB1
:101100008847761E8146E00501D52D2100E02B2180
:1011100008F8011BCDF8008021E0761E0DF13901A1
:10112000884544F400740CD2A9F1300010F0FF009F
:1011300088F8000002D10099884509D908F1010812
:1011400006E0E00501D51E4801E042F20F7082463C
:10115000B96912986D1C8847814613980560002E66
:1011600004DD484603F023FD0028D6D1F969129822
:101170008847FF2053468BF8000088F800000020C5
:101180000A900B9004AA0CA90AA8FFF7ADFDA005D0
:1011900002D46FF00100F8E614F0240F12D0E0073B
:1011A0001CD13868DDE90A12031D3B600068C0E904
:1011B000001213E04C4C00003E4C0000024B0000BB
:1011C000F1D8FFFF0AA9684603F0DEFCE00705D16D
:1011D0003868009A011D3960006802602846D4E62C
:1011E00030BCBDE8C08F30BCBDE8C04FFFF708BEC3
:1011F00010B50446AFF300802046BDE81040FFF76D
:1012000021B800004FF0013C50F8042B51F8043B8A
:101210009A4221D1A2EB0C03934313EACC1317D1CA
:1012200050F8042B51F8043B9A4215D1A2EB0C0361
:10123000934313EACC130BD150F8042B51F8043B21
:101240009A4209D1A2EB0C03934313EACC13DBD0EF
:101250004FF00000704700BFD01A01BAB1FA81F117
:1012600001F0180122FA01F0CB40C1F12001DBB2FC
:10127000C0B2C01A2CFA01F3D11A914311EAC3117A
:10128000E6D1704701491820ABBEFEE726000200F8
:101290002DE9FF4F1F464FF03C0987B04FF0004249
:1012A000DDE9141001F10108DDF858A002EA405010
:1012B0000390002005908346054604460490B969D2
:1012C000461E08988847AAF1010A0290BAF1000F59
:1012D0003BDD02982E2815D0102100F01EFA0028C0
:1012E0002EDB4FF0010B0599014317D0B9F1000F28
:1012F0000BDB4A46C11700F0FDF905430C43A9F189
:10130000040905E0012004900BE008B145F0010557
:1013100001200590049820B9361D02E0049800B120
:10132000361FB969089808F101088847BBF1000F1A
:10133000AAF1010A0290C9D00999C1F80080C5E755
:101340000298702808D0502806D0F9690898884774
:10135000BBF1000F14D04FE0002002900120BBF140
:10136000000F049009D0B969089808F1010888476E
:10137000AAF10109B9F1000F07DCF969089888475B
:101380006FF001000BB000F013B92B2804D02D280A
:101390000CD14FF0FF300490B969089808F10108AA
:1013A0008847A9F10109B9F1000FE6DD411CE4D03D
:1013B0000A2100F0B2F90028DFDB029908F10108E8
:1013C00001EB810100EB41000290B9690898884760
:1013D0000A2100F0A2F9099AA9F10109B9F1000F57
:1013E000C2F8008001DD0028E7DAF969089888472B
:1013F0000499029800FB016655EA040004D004F049
:101400004041090002D006E0039898E0A40044EAB5
:101410009574AD00B61E04F00041080002D16D19AC
:101420006441761E159810F0240F03D04FF00B097D
:101430005C4803E04FF028096FF07D008246564576
:1014400007DAAAEB06018944B9F1410F01DD4FF03B
:10145000410901200021A9F1010200F04BF90246E7
:1014600028400B462140084301D0012100E0002123
:10147000501E029143F1FF3128402140084301D022
:10148000012000E000200299834651EA0B014FD071
:10149000002108464FF00000039900F4400039B1E4
:1014A00000EB80004FF4400100EBD07001EA6000D7
:1014B0008015012802DD4FF0FF3000E013D0401C02
:1014C00036D0029860B3BBF1000F0CD14A46012020
:1014D000002100F00FF928402140084301D00120ED
:1014E00000E00020E0B101204A46002100F002F9AE
:1014F000034640190A4661412D1A8C4111D3B9F1B6
:10150000400F09DD159810F0240F02D0AAF134061F
:1015100003E0AAF1170600E0761C00254FF0004416
:1015200006E05B1E42F1FF3220EA030521EA0204D5
:10153000CAF10100B04206DA1B4903980843019042
:10154000002000900EE0039AC4F3D321E80A0A4376
:10155000164940EA44500A433146CDE90002684644
:1015600003F01BFB159810F0240F0BD01598C00743
:1015700015D13868DDE90012031D3B600068C0E941
:1015800000120CE002A8694603F0FEFA1598C007A5
:1015900005D13868029A011D396000680260404632
:1015A000F0E6000002FCFFFF0000F07F0000F03FCB
:1015B00030BCBDE8C08F00002DE9FF4F92461D46AC
:1015C00085B04FF00041DDE9124BDDE914727F1E5A
:1015D00001EA4B50414940F0FF4940EA010800212F
:1015E00022F020004928049102D04E2828D04CE057
:1015F0003BA0012607C88DE80700A9690698641C6E
:1016000088477F1E014606D41DF8060018B121F058
:10161000200181420BD0E96906988847032E34D017
:10162000082E32D06FF0010009B000F05FB8761CD0
:10163000032E01D0082EE0D1601CCAF80000DCE7C0
:10164000A9690698641C88477F1E2AD420F02000D0
:10165000412826D1A9690698641C88477F1E20D49A
:1016600020F020004E281CD1A9690698641C8847E8
:101670007F1E48F4002849F48009CAF8004001D4CC
:10168000282806D0E969069888475FEACB7012D00F
:1016900022E0A9690698641C88477F1E01D40028AF
:1016A00003DAE96906988847BCE72928F1D1641C68
:1016B000CAF80040E9E71BF0240F07D02868049916
:1016C000031D2B600068C0E9001805E02868021DB2
:1016D0002A600068C0F800902046A5E70000F07F6F
:1016E000494E46494E4954590000000030BCBDE8FF
:1016F000C08F7047B2F120030AD5C2F1200301FA6E
:1017000002F120FA03F300FA02F041EA0301704704
:1017100000FA03F14FF0000070473A2800D2303849
:1017200020F02002412A01D3A2F13700884201D3E0
:101730004FF0FF3070475FEA400C08BF91F0000F98
:101740004FEA8C234FEAC12243EA51514FEA1C5021
:1017500018BF00F5F0404FEA300018BF41F00041DB
:101760005FEA6C5C00F02980BCF1FF3F08BF40F0ED
:1017700080407047130C06BF12044FF0100C4FF05E
:10178000000C130E04BF12020CF1080C130F04BF5F
:1017900012010CF1040C930F04BF92000CF1020C27
:1017A000D30F04BF52000CF1010C11464FF00002A0
:1017B000A0F11F00A0EB0C00704711F0004F08BF14
:1017C000704731F000413FF4D5AF0B0C06BF090460
:1017D0004FF0100C4FF0000C0B0E04BF09020CF17F
:1017E000080C0B0F04BF09010CF1040C8B0F04BF94
:1017F00089000CF1020CCB0F04BF49000CF1010C65
:10180000CCF12003A0EB0C0022FA03F302FA0CF255
:1018100041EA030100F10100704720F07F4C80EAAB
:10182000030023F07F47ACEB070303F57C5300F084
:10183000004003F1FF032DE980494FEA154B09B43D
:101840004FEA144325EA0B4E24EA03480FF204261C
:1018500006EB132749083E785FEA320203FB06676E
:10186000C7F5000707FB06F64FEA54374FEAD6469E
:1018700006F1020607FB066CCCF1005C4FEA1C4740
:101880002CEA074C07FB06F40CFB06F504EB1546A7
:101890004FEA961634BF00204FF000404FEAD13790
:1018A00006FB07FC4FEA1C4C0CFB0BF7D21B03FB9F
:1018B0000CF761EB07010CFB0EF7B0EB074072EB86
:1018C00017420CFB08F734BFA2EB0742B2EB07420A
:1018D00061EB17414FEA0C444FEA910706FB07FC06
:1018E0004FEA1C4C0CFB0BF7B0EBC74072EB5732C6
:1018F00003FB0CF734BFA2EBC742B2EBC74261EB6C
:1019000057310CFB0EF7B0EBC70072EB57720CFBB4
:1019100008F734BFA2EBC702B2EBC70261EB577105
:10192000039F4FEA816141EA921104EBCC044FEA34
:10193000D1374FEA826206FB07FC42EA90124FEA77
:1019400080604FEA1C4C0CFB0BF7D21B03FB0CF71F
:1019500061EB07010CFB0EF7B0EB074072EB17428F
:101960000CFB08F734BFA2EB0742B2EB074261EB76
:1019700017414FEA8C554FEA910704EB9C2406FB74
:1019800007FC4FEA1C4C0CFB0BF7B0EBC74072EBAB
:10199000573203FB0CF734BFA2EBC742B2EBC7428E
:1019A00061EB57310CFB0EF7B0EBC70072EB5772CF
:1019B0000CFB08F734BFA2EBC702B2EBC70261EB26
:1019C000577115EB4C254FEA816141EA92114FEABC
:1019D00082624FEAD13742EA901206FB07FC44F1DB
:1019E00000044FEA80604FEA1C4C0CFB0BF7D21B43
:1019F00003FB0CF761EB07010CFB0EF7B0EB0740A4
:101A000072EB17420CFB08F734BFA2EB0742B2EBB4
:101A1000074261EB174115EB1C154FEA813141EA92
:101A200092414FEA823242EA90424FEA80304FEAD6
:101A30000C7644F1000448EA03434EEA0B484FF0A9
:101A4000000EB2EB080C71EB030724BF6246394667
:101A50004EEB0E0E4FF0000B0018524149414BEB7C
:101A60000B0BB2EB080C71EB03077BF1000B24BFEF
:101A7000624639464EEB0E0E4FF0000B00185241F5
:101A800049414BEB0B0BB2EB080C71EB03077BF1FD
:101A9000000B24BF624639464EEB0E0E51EA020798
:101AA00018BF46F0010616EB0E7655F1000254F110
:101AB000000103D5BDE88901BDE80088BDE88901C2
:101AC000BDE80048B619524141EB0101A3F1010301
:101AD000704780807F7E7D7C7B7A7978777676759B
:101AE0007473727171706F6E6E6D6C6C6B6A6A6913
:101AF0006868676666656464636362616160605FAD
:101B00005F5E5E5D5D5C5C5B5B5A5A595958585725
:101B1000575656555555545453535252525151508D
:101B200050504F4F4F4E4E4D4D4D4C4C4C4B4B4BE0
:101B30004A4A4A4949494848484747474746464626
:101B40004545454444444443434343424242424161
:101B50004141000046EA0646A3F570534FEA164697
:101B600046EA42564FEAD22242EA415210B54FEAC3
:101B7000D121A3F1010300F02FF820F0004000F183
:101B8000020C00F0004701EB00501146BCF5006F5D
:101B900040EA070000D210BDBAF1000F0AD01CB510
:101BA00003B44FF004004FF004014FF000000FBCED
:101BB000BDE810404FF00001BBF1010FB9BF044870
:101BC0004FF0FF310348002140EA070010BD00BF7D
:101BD000FFFFEF7F0000F07F002B9C4630D47700A2
:101BE0002BD01CB54FEA370703B44FF010004FF06D
:101BF0001001BAF1000F06D0BCF1000FDCBF40F0BD
:101C0000080040F008014FF000000FBCBDE8104094
:101C10000BF1010BBBF1010F08BF5FEA170722BFF1
:101C200012F1010211F101014FF0004143F10003F3
:101C300000F0004043EA00007047F9D35708D0E7AE
:101C400046EA064613F1400F4FEA16461FDD13F130
:101C5000200FDFBF16430A46002120335B42BED06F
:101C6000C3F1200746EA064602FA07F74FEA16468E
:101C700046EA0706C3F1200722FA03F201FA07F742
:101C800021FA03F14FF0000342EA0702A7E746EA10
:101C9000020646EA06464FEA164646EA0106BCBF79
:101CA00046EA0646360C4FF000034FF000024FF0B4
:101CB000000194E72DE9804C9A46934670B491E870
:101CC000380007C831EA400C48BF34EA430C03D55A
:101CD000FFF7A3FDFFF780FFF0BCBDE8008C2DE906
:101CE000804C9A46934670B491E8380007C831EAB0
:101CF000400C48BF34EA430C03D5FFF78EFDFFF7D5
:101D000029FFF0BCBDE8008C2DE9804C9A46934633
:101D100070B491E8380007C810F0804F08BF13F086
:101D2000804F03D100F01AF8FFF756FFF0BCBDE872
:101D3000008C2DE9804C9A46934670B491E83800A7
:101D400007C810F0804F08BF13F0804F03D100F098
:101D500005F8FFF7FFFEF0BCBDE8008C20F07F47E0
:101D600080EA030023F07F4C07EB0C03A3F57C53C0
:101D700000F00040A3F1FE0392F0000F00F0B380EA
:101D800095F0000F00F077802DE901494FEA1140EE
:101D90004FEA144621EA004800FB06FC24EA064705
:101DA00008FB06F607FB08F800FB07F718EB0648E8
:101DB0004CEB164C4FEA124B18EB07484FEA15460E
:101DC0004CEB174022EA0B4E0BFB06FC25EA0647BC
:101DD0000EFB06F607FB0EFE0BFB07F71EEB064E8F
:101DE0004CEB164C4FF000061EEB074E4CEB174B1E
:101DF00018EB0B0840F1000018EB0E0B58EB000835
:101E000040F100008F1A4FF000013CBFC943661B30
:101E100014BFB5EB040C00213CBFC943F61B4FEACD
:101E200017444EEA8E0E27EA04454FEA1C4704FB8E
:101E300007622CEA074C05FB07F70CFB05F604FBD1
:101E40000CFC16EB074642EB174216EB0C4642EB36
:101E50001C421BEB060658EB0202414146EA9E0675
:101E600001D5BDE80189B619524141EB0101A3F149
:101E70000103BDE801894FEA14454FEA114724EAFE
:101E8000054621EA074C05FB07F406FB07F70CFBA8
:101E900006F105FB0CFC11EB074144EB17444FEA3C
:101EA000124711EB0C4144EB1C4422EA074C05FBA2
:101EB00007F206FB07F70CFB06F605FB0CFC16EB1E
:101EC000074642EB174216EB0C4642EB1C456A18DC
:101ED00054F1000148BF7047B619524141EB01016E
:101EE000A3F10103704795F0000F37D04FEA11427C
:101EF0004FEA144721EA024624EA074C02FB07F1A5
:101F000006FB07F70CFB06F402FB0CFC14EB074482
:101F100041EB17414FEA154714EB0C4441EB1C41D0
:101F200025EA074C02FB07F506FB07F70CFB06F654
:101F300002FB0CFC16EB074645EB174516EB0C466F
:101F400045EB1C42121951F1000148BF7047B61908
:101F5000524141EB0101A3F1010370474FEA1445DF
:101F60004FEA114724EA054621EA074C05FB07F131
:101F700006FB07F70CFB06F24FF0000605FB0CFC16
:101F800012EB074241EB174112EB0C4251EB1C41A3
:101F900048BF7047921841EB0101A3F1010370475C
:101FA000FEE7000010B504462DED088BB0EE608A08
:101FB00070EE488A80ED078AC0ED008A18EE900A1C
:101FC00003F0B2FB9FED541B53EC112B03F08EF981
:101FD00002F0BAFE0BEE900AC4ED02BA606803F09C
:101FE000A3FB9FED4F1B53EC112B03F07FF941EC4A
:101FF000190B206903F098FB53EC192B02F0D6FE65
:1020000002F0A2FE0BEE100A84ED03BA206A03F080
:102010008BFB9FED45AB53EC1A2B03F067F941ECBA
:10202000190B18EE100A03F07FFB53EC1A2B03F088
:102030005DF941EC1A0BA06903F076FB9FED3C1BA8
:1020400053EC112B03F052F953EC1A2B02F0AEFEB5
:1020500053EC192B03F07EFA02F076FE3BEE8B0A6E
:1020600009EE100A84ED059A30EE090AD4ED090A4A
:1020700030EE200A84ED0D0AA08F00EE900AF8EEF3
:10208000600AB4EEE00AF1EE10FA09DCE08F00EE2F
:10209000900AF8EE600AB4EEE00AF1EE10FA05D20A
:1020A00000EE100AB8EE400A84ED0D0A94ED0C0A19
:1020B000D4ED0E0A30EE600A10EE100A03F034FB85
:1020C0009FED1D1B53EC112B03F010F941EC1A0B83
:1020D000A06A03F029FB53EC1A2B02F067FE02F012
:1020E00033FE606294ED0D0A84ED0B0A84ED069ACE
:1020F00084ED04BAA06284ED0C0A84ED0E0AC4EDEE
:10210000018ABCEEC00A84ED088ABDEC088B10EE93
:10211000100A80B210BD000098BED7101C9781BF76
:102120004182E2C798BB763F99F5622827DA853F5E
:10213000FCB1FFF0A952C13F9A9999999999D93F59
:102140007047022000F050B872B6FEE710B590F864
:1021500025100022022905D00421C16380F8242023
:10216000012010BD01680B6823F00E030B600168AD
:102170000B6823F001030B6090F84410046C01F02D
:102180001C03012101FA03F3636080F8251080F835
:102190002420104610BD10B590F825100024022907
:1021A00003D00421C16301241AE001680A6822F007
:1021B0000E020A6001680A6822F001020A6090F8C3
:1021C0004410036C01F01C02012101FA02F25A6072
:1021D00080F82510002180F82410816B01B1884718
:1021E000204610BD70470000044910B50A6802423D
:1021F00002D00860FFF7F6FF10BD00001404014094
:102200002DE9FC4FDFF884A1002301250AF1040B1E
:1022100003244FF00F0C0BF1040EB0E005FA03F7A6
:102220003A406ED04E68012E05D0022E03D0112EFA
:1022300001D0122E17D1D0F808905E0004FA06F8EB
:1022400029EA08090096D1F80C8008FA06F848EA4D
:102250000908C0F808804668BE430F79C7F3001725
:102260009F4037434760C6684FEA430804FA08F7BF
:10227000BE4301978F6807FA08F73743C7604E6877
:10228000022E01D0122E10D1DE0800EB8606009639
:10229000366A5F074FEAD7690CFA09F7BE430F6940
:1022A00007FA09F73743009E37620668019FBE436D
:1022B0000F7907F0030707FA08F7374307604E68FE
:1022C000F6005BD5324E376E47F001073766366E43
:1022D00023F0030706F0010600962E4E3E44B14659
:1022E000B6689F074FEA17780CFA08F7BE43B0F1BB
:1022F000904F04D0284FB84204D101270DE00027A9
:102300000BE03BE0254FB84201D1022705E0244F06
:10231000B84201D1032700E0072707FA08F737433F
:10232000C9F80870DAF800605746D1F8048096437F
:102330005FEAC83800D516433E60DBF800605F46B0
:10234000D1F8048096435FEA883800D516433E6092
:10235000DEF800607746D1F8048096435FEAC8282B
:1023600000D516433E60094F0C373E68D1F8048013
:1023700096435FEA882800D516433E605B1C0E68D2
:102380003246DE407FF44AAF00F00CB80004014052
:10239000001002400000014000040048000800480E
:1023A000000C00481CBCBDE8E08F426921EA020332
:1023B0000A4043EA0241816170470AB18161704776
:1023C0008162704701488068704700001800002053
:1023D000024881680278114481607047180000202B
:1023E00010B50024032000F071F80F2000F008F869
:1023F00008B1012401E000F025F8204610BD0000DE
:1024000070B50E4E05460024307898B14FF47A71BD
:10241000B1FBF0F00A490968B1FBF0F000F084FD6F
:1024200040B9102D06D200222946501E00F02EF889
:10243000756000E00124204670BD000018000020F7
:1024400024000020094808B5016E41F00101016631
:10245000016E01F001010091816D41F080518165B3
:10246000806D00F08050009008BD00000010024018
:10247000002809DB00F01F02012191404009800083
:1024800000F1E020C0F8001170470000F0B40E4BDE
:102490001B680C46C3F30223C3F10705042D00D9C2
:1024A0000425191D072901D2002300E0DB1E0126A7
:1024B00006FA05F1491E214099409E40761E1640BD
:1024C0003143F0BC02F02DBA0CED00E0064900F0FB
:1024D000070208684FF6FF03184040EA0220034A4B
:1024E00010430860704700000CED00E00000FA05A2
:1024F0001649B0F5007F0868C0F3412009D00228D2
:1025000005D0086820F4C06040F4806008600020B6
:1025100070470128FBD0086820F4C06040F40070C8
:1025200008600B483222006850430A4AB0FBF2F0C0
:10253000401C00E0401E4A69520501D50028F9D12F
:1025400048694005E3D50320704700000070004053
:102550002400002040420F000248006800F4C060E0
:1025600070470000007000402DE9F8430446006801
:102570000026774D80035ED5A86D0027C00008D4E3
:10258000A86D40F08050A865A86D012700F080502C
:102590000090DFF8C091D9F8001041F48071C9F8BB
:1025A0000010FFF70FFF804606E000BFFFF70AFFAD
:1025B000A0EB080002282BD8D9F80000C005F5D5FB
:1025C000D5F8900010F4407014D0216B814211D0E6
:1025D000D5F89000D5F8901020F4407041F4803187
:1025E000C5F89010D5F8901021F48031C5F89010FE
:1025F000C5F89000C00711D0FFF7E4FE804641F215
:10260000883907E0FFF7DEFEA0EB0801494501D954
:1026100003260BE0D5F890008007F3D5D5F890009D
:10262000216B20F440700843C5F890001FB1A86DDD
:1026300020F08050A8652078C00707D0D5F8880022
:10264000616820F003000843C5F8880020788007FF
:1026500007D5D5F88800A16820F00C000843C5F81C
:1026600088002078400707D5D5F88800E16820F079
:1026700030000843C5F888002078800607D5D5F8D3
:102680008800216920F440600843C5F8880020884C
:10269000800507D5D5F88800216A20F4402008433A
:1026A000C5F888002088400507D5D5F88800616AFC
:1026B00020F440100843C5F888002078400607D56C
:1026C000D5F88800616920F440500843C5F88800B7
:1026D0002078000607D5D5F88800A16920F440408D
:1026E0000843C5F888002088C00507D5D5F88800BC
:1026F000E16920F440300843C5F8880020884FF095
:10270000006180040ED5D5F88800A26A20F04060F0
:102710001043C5F88800A06A884203D1E86840F4F5
:102720008010E860206840030ED5D5F88800E26A82
:1027300020F040601043C5F88800E06A884203D169
:10274000E86840F48010E8603046BDE8F883000097
:1027500000100240007000402DE9F0470F460500D0
:1027600058D0404E306800F00700B84209D23068B7
:1027700020F0070038433060306800F00700B842AE
:1027800048D12878384CC0072CD06868032811D06D
:10279000022812D0216898B1490500293ADAA168C7
:1027A00021F003010143A160FFF70CFE804641F2D6
:1027B000883910E021688901EFE721688903ECE797
:1027C0008907EAE7FFF7FEFDA0EB0801494502D9BA
:1027D0000320BDE8F087A068696800F00C00B0EB4A
:1027E000810FEFD12878800705D5A068A96820F06F
:1027F000F0000843A060306800F00700B8420BD931
:10280000306820F0070038433060306800F007007F
:10281000B84201D00120DCE72878400705D5A06840
:10282000E96820F4E0600843A0602878000706D536
:10283000A068296920F4605040EAC100A06000F05F
:102840003FF8A168094AC1F30311515C01F01F016F
:10285000C8400749086007480068BDE8F047FFF72F
:10286000CFBD0000002002400010024024590008A3
:10287000240000201C0000200548064900688968E3
:10288000054AC1F30221515C01F01F01C8407047A5
:102890002400002000100240645900080548064941
:1028A00000688968054AC1F3C221515C01F01F012B
:1028B000C8407047240000200010024064590008FE
:1028C00070B52549002318468A68CC6812F00C02BE
:1028D00004F00306214C4FEA640509D00C2A05D008
:1028E000042A32D0082A00D1284670BD012E10D10A
:1028F0000B681B0704D4D1F89430C3F3032302E020
:102900000B68C3F30313164E56F82330DAB10C2AC2
:10291000EBD1C86800F00300022818D0032818D0B3
:102920001846CA68CB68C2F30212C3F306234343B6
:10293000521CB3FBF2F2C868C0F34160401C400077
:10294000B2FBF0F070BD184670BD204670BD204649
:10295000E7E72846E5E70000001002400024F40005
:10296000345900082DE9F84304006FD0FE4DA868E3
:1029700000F00C06E86800F003072078C00664D574
:1029800076B10C2E01D1012F0AD0E0690028286809
:102990007AD040F001002860FFF714FD80465DE02A
:1029A0002868800702D5E0690028DED0616A2868BF
:1029B000000703D5286800F0F00004E0D5F8940083
:1029C000F02202EA1010814216D9084601F02CFAD2
:1029D00000283BD1286840F0080028602868616A18
:1029E00020F0F000084328606868216A20F47F40E6
:1029F00040EA0120686016E0286840F0080028607E
:102A00002868616A20F0F000084328606868216A3D
:102A100020F47F4040EA0120686026B9606A01F036
:102A200003FA0028D5D1FFF74BFFA968CF4AC1F3BD
:102A30000311515C01F01F01C840CD490860CD4829
:102A40000068FFF7DDFC00287ED12EE0C4E000BF67
:102A5000FFF7B8FCA0EB0800022876D828688007AA
:102A6000F6D5286840F0080028602868616A20F0E0
:102A7000F000084328606868216A20F47F4040EA3B
:102A80000120686011E0FFE720F001002860FFF7F7
:102A900099FC804606E000BFFFF794FCA0EB08001D
:102AA0000228DAD828688007F6D42078C00740D0FA
:102AB000082E18D00C2E01D1032F14D06068B0F569
:102AC000803F17D0B0F5A02F286817D020F48030B1
:102AD0002860286820F4802028606068E0B1FFF753
:102AE00071FC804614E02868800322D560680028C5
:102AF00072D01EE0286840F48030EDE740F480207A
:102B00002860F7E7FFF75EFCA0EB08006428A4D874
:102B100028688003F6D50CE0FFF754FC804605E0FA
:102B2000FFF750FCA0EB0800642896D828688003C3
:102B3000F6D4207880073BD5042E11D00C2E01D17D
:102B4000022F0DD0E06801E0E2E117E100282868DB
:102B50001ED040F480702860FFF734FC07460CE07C
:102B6000286840050CD5E0680028C1D008E000BF07
:102B7000FFF728FCC01B022893D828684005F7D52A
:102B80006868217C20F0FE4040EA016068600FE048
:102B900020F480702860FFF715FC074605E000BFB1
:102BA000FFF710FCC01B0228B1D828684005F7D4F5
:102BB0002078000753D560690028D5F894003DD0EF
:102BC000A16900F01002914223D081074FEAC07042
:102BD00003D500288CD001E071E190B1D5F89400C4
:102BE00020F00100C5F89400FFF7ECFB074604E075
:102BF000FFF7E8FBC01B112889D8D5F8940080079F
:102C0000F6D4D5F89400A16920F010000843C5F867
:102C10009400D5F8940040F00100C5F89400FFF747
:102C2000D1FB074605E000BFFFF7CCFBC01B112816
:102C3000A2D8D5F894008007F6D510E020F0010066
:102C4000C5F89400FFF7BEFB074604E0FFF7BAFBA8
:102C5000C01B112890D8D5F894008007F6D42078AE
:102C6000400778D5A86D0027C00008D4A86D40F0B3
:102C70008050A865A86D012700F0805000903E4864
:102C80000168C90512D40168814641F48071016070
:102C9000FFF798FB804605E0FFF794FBA0EB0800E8
:102CA00002286BD8D9F80000C005F5D5A068C10787
:102CB00020D0D5F8901000F0800021F08001014371
:102CC000C5F89010207A400705D5D5F8900040F05F
:102CD0000400C5F89000D5F8900040F0010000BF56
:102CE000C5F89000A06841F28839D0B1FFF76AFBBF
:102CF000804611E0D5F8900020F00100C5F8900062
:102D0000D5F8900020F00400EAE700BFFFF75AFB77
:102D1000A0EB0801494531D8D5F890008007F5D5DA
:102D200014E0FFF74FFB804606E000BFFFF74AFBC9
:102D3000A0EB0801494521D8D5F890008007F5D4CB
:102D4000D5F8900020F08000C5F890001FB1A86D64
:102D500020F08050A8652078800634D5A06A00282D
:102D6000D5F898001ED00AE000100240245900084F
:102D7000240000201C000020007000408CE040F087
:102D80000100C5F89800FFF71DFB074605E000BFEE
:102D9000FFF718FBC01B02287ED8D5F898008007E3
:102DA000F6D510E020F00100C5F89800FFF70AFB07
:102DB000074604E0FFF706FBC01B02286CD8D5F8D5
:102DC00098008007F6D4E06AE8B3022811D00C2EF0
:102DD00075D0286820F080702860E86820F0030033
:102DE000E860E86820F08870E860FFF7EBFA0446D6
:102DF00090E0E868226B00F0030191421FD1616B03
:102E000000F0700209011039914218D1A26B00F450
:102E1000FE41B1EB022F12D1A18F00F4C00249088C
:102E20004905A1F50011914209D194F8401000F034
:102E3000C06049084906A1F10071814249D00C2EB9
:102E40006DD0286800E05BE020F080702860FFF71C
:102E5000B9FA064605E000BFFFF7B4FA801B022866
:102E600055D828688001F7D4D4E90C016FF00F021F
:102E700002EB01110843A18F5204490802EB4151B2
:102E8000A26B41EA0221084394F840104FF07E42C1
:102E9000490802EB416100E039E00843E968214A52
:102EA00011400843E860286840F080702860E868B6
:102EB00040F08070E860FFF785FA044605E02EE0F8
:102EC000FFF780FA001B022821D828688001F7D577
:102ED00023E02868800120D4286840F080702860B2
:102EE000E86840F08070E860FFF76CFA044604E0A0
:102EF000FFF768FA001B022809D828688001F7D577
:102F00000BE000BFFFF75EFA001B022802D9032086
:102F1000BDE8F88328688001F4D40020F8E7012098
:102F2000F6E700008C809FF910B5401EB0F1807F5D
:102F300001D3012010BD4FF0E02460610F21601724
:102F400001F0EFFC0020A06107202061002010BDEF
:102F5000704770477047000030B590F83C20012A58
:102F600037D0012280F83C20CA688C6822F4407275
:102F700022434C6822F4806222430C6822F40062EF
:102F800022430C6922F4805222434C6922F40052FD
:102F900022438C6A22F4804222430C8B22F470225A
:102FA00042EA04420C4D04680023AC420CD18D8CE3
:102FB00022F4700242EA0552CD6922F080722A435F
:102FC000096A22F000720A43626480F83C300020F3
:102FD00030BD022030BD0000002C0140F0B590F85B
:102FE0003C20012A29D0012480F83C40022280F8AC
:102FF0003D2003685A689D68114EB34203D122F404
:1030000070074A683A4322F070070A683A435A60E8
:103010000268B24205D0B2F1804F02D0094B9A4209
:1030200004D1896825F080031943916080F83D4000
:10303000002180F83C100846F0BD0220F0BD0000E1
:10304000002C01400040014010B5040003D094F86A
:103050003D0010B107E0012010BD002084F83C00C5
:10306000204600F023F8022084F83D00211D20684E
:1030700000F078FF012084F8480084F83E0084F8CE
:103080003F0084F8400084F8410084F8420084F84E
:10309000430084F8440084F8450084F8460084F82E
:1030A000470084F83D00002010BD000010B586B038
:1030B000044614216846FDF7F6F921681B48B1F172
:1030C000804F14D01A4A91420FD1816D41F0100106
:1030D0008165806D002200F01000059011463620B9
:1030E000FFF7D4F93620FFF7C3F906B010BD816DA4
:1030F00041F001018165816D01F001010591C16C13
:1031000041F00101C164C06C022100F00100059092
:103110000120CDE9000100210291CDE903106946AB
:103120004FF09040FFF76CF8DFE70000001002401E
:103130000010004090F83D10012901D00120704797
:10314000022180F83D1000680B49884205D0B0F19B
:10315000804F02D00949884207D18168084A11404E
:10316000062906D0B1F5803F03D0016841F0010186
:103170000160002070470000002C01400040014029
:103180000700010090F83D10012901D0012070478F
:10319000022180F83D100168CA6842F00102CA604D
:1031A00000680B49884205D0B0F1804F02D0094930
:1031B000884207D18168084A1140062906D0B1F536
:1031C000803F03D0016841F0010101600020704799
:1031D000002C01400040014007000100704770B51D
:1031E0000446006801694FF00005C943890715D4FA
:1031F000C168C943890711D4E91E01610120207704
:10320000206880698007204602D0FFF7E7FF04E0CE
:1032100000F0D0F8204600F0A3F925772068016976
:10322000C943490717D4C168C943490713D46FF08C
:1032300004010161022020772068806910F4407F3A
:10324000204602D0FFF7CAFF04E000F0B3F82046A2
:1032500000F086F9257720680169C943090716D46B
:10326000C168C943090712D46FF008010161042045
:1032700020772068C0698007204602D0FFF7AEFFA4
:1032800004E000F097F8204600F06AF925772068FE
:103290000169C943C90617D4C168C943C90613D413
:1032A0006FF010010161082020772068C06910F4D8
:1032B000407F204602D0FFF791FF04E000F07AF84B
:1032C000204600F04DF9257720680169C943C907F8
:1032D00008D1C168C943C90704D1891E01612046CC
:1032E00000F0A8F920680169C943090609D4C1683A
:1032F000C943090605D46FF0800101612046FFF73C
:1033000028FE20680169C943C90509D4C168C943B9
:10331000090605D46FF4807101612046FFF718FE9D
:1033200020680169C943490609D4C168C9434906EF
:1033300005D46FF040010161204600F00AFA2068D0
:103340000169C94389060BD4C168C943890607D4FA
:103350006FF0200101612046BDE87040FFF7FABD23
:1033600070BD000010B586B0044614216846FDF714
:103370009AF80E492068884216D10D48C16C41F078
:103380000101C164C06C694600F00100059008208D
:103390000090022001900020029003900E200490E3
:1033A0004FF09040FEF72CFF06B010BD00400140EA
:1033B00000100240704770B5044690F83C000D467E
:1033C00001280BD0012084F83C000C2A45D007DCF2
:1033D0005AB1042A1BD0082A78D12CE0022070BDF3
:1033E000102A4ED0142A71D15DE0206800F008FE4A
:1033F0002068816941F0080181612068816921F0BC
:1034000004018161206881692A69114311E0206803
:1034100000F032FE2068816941F40061816120681A
:10342000816921F480618161206881692A6941EAAA
:10343000022181614AE0206800F05AFE2068C169DB
:1034400041F00801C1612068C16921F00401C16136
:103450002068C1692A69114311E0206800F082FEEA
:103460002068C16941F40061C1612068C16921F42B
:103470008061C1612068C1692A6941EA0221C16194
:1034800024E0206800F09EFE2068416D41F00801B4
:1034900041652068416D21F0040141652068416D5E
:1034A0002A69114311E0206800F0BAFE2068416DDE
:1034B00041F4006141652068416D21F480614165FE
:1034C0002068416D2A6941EA02214165002084F8A3
:1034D0003C0070BD10B5040003D094F83D0010B15D
:1034E00007E0012010BD002084F83C00204600F0D9
:1034F00023F8022084F83D00211D206800F032FDF1
:10350000012084F8480084F83E0084F83F0084F8E5
:10351000400084F8410084F8420084F8430084F8B5
:10352000440084F8450084F8460084F8470084F895
:103530003D00002010BD000008B500680649884223
:1035400008D10648016E41F480310166006E00F436
:103550008030009008BD0000004001400010024093
:103560007047000010B50446022269B1042912D048
:10357000082917D00C291CD0102921D094F8430019
:10358000012824D0012010BD94F83E000128F9D173
:1035900084F83E201DE094F83F000128F2D184F821
:1035A0003F2016E094F840000128EBD184F8402039
:1035B0000FE094F841000128E4D184F8412008E0AC
:1035C00094F842000128DDD184F8422001E084F81B
:1035D00043200122206800F0FBFC12492068124AB7
:1035E000884204D0904202D0104B984203D1436CE1
:1035F00043F4004343642068884204D0B0F1804F14
:1036000001D0904207D18168094A1140062906D0AD
:10361000B1F5803F03D0016841F001010160002055
:1036200010BD0000002C014000400140004401405A
:103630000700010070B524492DED028B884240D16E
:1036400022480568686A224CA06001F0FFFD9FEDEA
:10365000218B53EC182B01F049FE9FED201B53ECFE
:10366000112B01F05FFC01F06FFBE06002F05CF8F1
:103670009FED1C1B53EC112B01F038FE53EC182B63
:1036800001F050FC01F060FB00EE900A0020C4ED58
:10369000040A686294ED010A1448FEF783FC144999
:1036A000608009688863206902F03EF8BDEC028BF7
:1036B00041EC100BBDE8704053EC102B0DA0FCF753
:1036C0005FBEBDEC028B70BD18010020CC00002055
:1036D000040000200000000000004E40333333336C
:1036E000333303407A008BFCFA2119408C00002010
:1036F00064010020252E32660D0A000070B50446D4
:1037000090F83C00012812D0012584F83C5002209A
:1037100084F83D00204600F0B1FD01004FF00000AC
:1037200007D084F83D5084F83C00012070BD022091
:1037300070BD2168CA6822F04002CA602168CA6868
:1037400022F48042CA6084F83D5084F83C00002096
:1037500070BD704770477047704700002DE9F04119
:1037600002680446D0691168936840F60F05284244
:103770004FF0000505D1860678D58E0676D5616EA8
:10378000F3E0834F03F001060F4037437ED0C707B5
:1037900009D0CF0507D501271762D4F8802042F061
:1037A0000102C4F8802082070AD5DA0708D027680A
:1037B00002223A62D4F8802042F00402C4F8802049
:1037C00042070AD5DA0708D0236804221A62D4F81F
:1037D000802042F00202C4F8802002070CD501F0DC
:1037E0002002324308D0236808221A62D4F88020CD
:1037F00042F00802C4F8802002050BD54A0109D521
:1038000023684FF400621A62D4F8802042F020024C
:10381000C4F88020D4F88020002A2FD0800605D557
:10382000880603D5616E09B120468847D4F8800028
:1038300021688968490602D410F0280F20D020465C
:1038400000F021FE20688168490614D5816821F0C6
:1038500040018160206F70B14E498163206FFEF797
:103860009AFC00280AD0206F816B01E00EE0204610
:10387000BDE8F04108472046FFF76EFFBDE8F08144
:103880002046FFF769FFC4F88050F7E7276E20262F
:10389000012F59D1C70657D5CF0655D51020106234
:1038A0002268906840062ED5216F086840680004A1
:1038B000000CE3D0B4F858308342DFD9A4F85A00A2
:1038C00008680068800617D4106820F480701060C3
:1038D0002068816821F0010181602068816821F001
:1038E00040018160E66725662068016821F01001CB
:1038F0000160206FFEF72AFCB4F85800B4F85A10A3
:10390000401A81B21CE0B4F85800B4F85A10401ABA
:1039100081B2B4F85A000028B0D00029AED01068A7
:1039200020F4907010602068826822F001028260AA
:10393000E667256665662068026822F0100202606C
:103940002046FFF707FF99E7C70209D55B0207D5B5
:103950004FF4801010622046BDE8F041FFF7FBBE37
:10396000030606D50B0604D5A16E00297FF47FAFB0
:1039700084E7400682D5480680D5106820F04000D4
:103980001060A6672046A56600F035F976E70000CE
:10399000200100047344000810B5040002D0A06F99
:1039A00010B107E0012010BD002084F8740020460B
:1039B00000F026F82420A0672068016821F00101AA
:1039C0000160204600F0F4FD0128ECD0606A10B1DF
:1039D000204600F0BCFC2068416821F49041416021
:1039E0002068816821F02A0181602068016841F027
:1039F000010101602046BDE8104000F00CBD000050
:103A0000F0B593B0044614216846FCF74CFD342110
:103A100005A8FCF748FD2049206888423AD10224D5
:103A2000002605A807960594FEF79EFD08B1FEF74F
:103A30008BFB1A48816D41F400318165816D01F481
:103A400000311291C16C41F00101C164C06C0325C9
:103A500000F00100129004208DE851000720CDE90C
:103A600003504FF0904769463846FEF7C9FB4FF4C4
:103A70000040CDE90004CDE9026569460495384669
:103A8000FEF7BEFB002211462620FEF7FFFC262093
:103A9000FEF7EEFC13B0F0BD004400400010024001
:103AA00010B4C36F202B1BD1B9B1B2B190F87430F0
:103AB000012B15D0012380F8743000230366094CD4
:103AC0000368A34206D05C68240203D51C6844F056
:103AD00080641C6010BC00F06BBE012010BC7047FD
:103AE0000220FBE70080004010B5114C21787829B6
:103AF0000BD0104A60781154401C6070BDE8104033
:103B000001220B490C48FFF7CBBF08210B48FEF7F9
:103B10004CFC084800F094FF51EC100B01F014F934
:103B2000606061780348FCF7BEFC0020E5E7000018
:103B30000400002028000020B001002000040048FC
:103B40002DE9F8430446806F1F4616460D4620288F
:103B50004FD1CDB1C6B194F87400012849D00120ED
:103B600084F874004FF00008C4F880802120A0671A
:103B7000FEF728FCA4F850608146A4F85260A068C3
:103B8000B0F5805F03D004E00120BDE8F883206930
:103B900028B12E465FF0000584F8748010E00026FE
:103BA000FAE78021204600F04BFEB8B9C6B116F8FE
:103BB000010B21680885B4F85200401EA4F8520099
:103BC000B4F852004B464FF0000200970028E8D1AD
:103BD0004FF04001204600F033FE30B10320D4E71F
:103BE00035F8020BC0F30800E3E72020A0670020AF
:103BF000CBE70220C9E77047FEE7000030B587B089
:103C000014216846FCF74FFC1A48C16C41F00101D1
:103C1000C164C16C01F001010591C16C41F0020168
:103C2000C164C06C144D00F00200059000224A21CE
:103C30002846FEF7C2FB0220009010480024CDE980
:103C4000010469464FF09040FEF7DAFA4A200090EE
:103C50000120CDE90104694628460394FEF7D0FA15
:103C6000002211460720FEF711FC0720FEF700FC9A
:103C700007B030BD001002400004004800002110D1
:103C800010B596B00024129413941C210BA8149420
:103C9000FCF709FC2C216846FCF705FC1F481E496F
:103CA00001602721C0E901143121C0E903144461F6
:103CB0008461FFF70FFC08B1FEF746FA129412A9CF
:103CC00016481494FFF78AF908B1FEF73DFA602010
:103CD000CDE90B040D940E940F94109404220BA9BB
:103CE0000E481194FFF767FB08B1FEF72DFA009418
:103CF0004FF40050CDE904400194029403946946C6
:103D000006480A94FFF728F908B1FEF71DFA0348A0
:103D1000FFF728FB16B010BD0040014064010020F1
:103D200010B588B014216846FCF7BDFB0024154887
:103D3000059406944FF080410794C0E90014611E79
:103D4000C0E9024104618461FFF77EF908B1FEF722
:103D5000FBF9072000905020CDE90104694609488D
:103D60000494FFF7CBFC08B1FEF7EEF9059405A922
:103D700004480794FFF732F9002801D0FEF7E4F970
:103D800008B010BDCC0000203EB500240F480094C0
:103D900001940D49029401604F21C0E9011444F6D9
:103DA0001F618461C160FFF74FF908B1FEF7CCF9DC
:103DB0000094694605480294FFF710F9002801D0E5
:103DC000FEF7C2F93EBD00000010004018010020BF
:103DD0000D4810B50B4901604FF4E13141600021FD
:103DE00081600C22C160C0E904128161C16101627D
:103DF0004162FFF7D1FD002803D0BDE81040FEF777
:103E0000A3B910BD00440040B0010020FEE7FEE76A
:103E100070B50D46164604464021FCF744FBA687C4
:103E2000E58770BD70470000F8B51C4D06460024BC
:103E3000A86DC00002D5FEF78FFB0DE0A86D40F025
:103E40008050A865A86D00F080500090FEF784FBBC
:103E5000A96D21F08051A965B0F5007F04D0802EB6
:103E600007D94FF003040AE0802E08D9A02E01D80C
:103E700004E001D1022402E0702E00D101240848A0
:103E8000016821F0070121430160006800F007008C
:103E9000A04201D00120F8BD0020F8BD0010024072
:103EA000002002407047FEF793BA10B596B0442147
:103EB0006846FCF7F8FA142111A8FCF7F4FA4FF45D
:103EC0000070FEF715FB08B172B6FEE70024602112
:103ED0001020CDE908410090012007900221CDE992
:103EE0000B100D902820CDE90E0168461091FEF7C9
:103EF00039FD08B172B6FEE70F2011900320CDE91D
:103F000012041494042111A81594FEF725FC00282E
:103F100001D072B6FEE716B010BD00000B48016874
:103F200041F4700101600A48016841F0010101603B
:103F3000002181600268074B1A4002608214C2604F
:103F4000026822F4802202608161704788ED00E0FF
:103F500000100240FFFFF6EA0148FFF740B90000F9
:103F60001801002070B50268164B4FF08046984249
:103F700001D0B04203D122F070044A682243124CAF
:103F8000124D984205D0B04203D0A04201D0A842C1
:103F900003D122F44076CA6832434E6922F080028F
:103FA000324302608A68C2620A688262984203D021
:103FB000A04201D0A84201D10969016301214161F8
:103FC00070BD0000002C0140004001400044014051
:103FD00010B501F01F030121046A99408C4304626B
:103FE000016A9A401143016210BD10B5846842EA2B
:103FF000032224F47F440A432243826010BD000060
:10400000F0B5026A22F001020262056A4368826921
:10401000154C25F0020522400C6822F003021443DF
:104020008A68134E2A43114D124FA84203D0B04262
:1040300001D0B84206D122F0080CCA6842EA0C024C
:1040400022F00402A84203D0B04201D0B84205D108
:104050004D6923F440731D438B692B434360846196
:10406000496841630262F0BD8FFFFEFF002C0140F2
:10407000004001400044014030B5026A22F01002C5
:104080000262046A42688369154D2B400D6823F46F
:10409000407343EA052524F020038C6843EA0413A7
:1040A000104CA04207D1CC6823F0800343EA0413EC
:1040B00023F0400305E00C4CA04202D00B4CA04280
:1040C00007D14C6922F4406242EA84028C6942EAD8
:1040D00084024260856149688163036230BD0000EB
:1040E000FF8FFFFE002C01400040014000440140D2
:1040F00030B5026A22F480720262046A4268C369BF
:10410000144D2B400D6823F003031D4324F400736A
:104110008C6843EA0423104CA04207D1CC6823F4F6
:10412000006343EA042323F4806305E00B4CA042C0
:1041300002D00B4CA04207D14C6922F4405242EA13
:1041400004128C6942EA04124260C5614968C16385
:10415000036230BD8FFFFEFF002C01400040014094
:104160000044014030B5026A22F480520262046ABF
:104170004268C3690F4D24F400542B400D6823F4AA
:10418000407343EA05238D6844EA05340A4DA8428A
:1041900005D00A4DA84202D0094DA84204D14D696C
:1041A00022F4804242EA85124260C3614968016498
:1041B000046230BDFF8FFFFE002C01400040014033
:1041C0000044014030B5026A22F480320262046A7F
:1041D0004268436D0E4D2B400D681D4324F400339F
:1041E0000C8943EA04430B4CA04205D00A4CA04280
:1041F00002D00A4CA04204D14C6922F4803242EA37
:1042000004224260456549688165036230BD000053
:104210008FFFFEFF002C01400040014000440140A0
:1042200030B5026A22F480120262046A4268436D69
:104230000E4D24F400142B400D6843EA05230D892C
:1042400044EA05540A4DA84205D00A4DA84202D0BE
:10425000094DA84204D14D6922F4802242EA852208
:10426000426043654968C165046230BDFF8FFFFE4F
:10427000002C0140004001400044014010B504689A
:10428000A26822F070034A681A431E4B1A400B685A
:104290001343A3604A6812F00F0F30D11211082A9D
:1042A0002DD2DFE802F02C2C2C2C0B2127040B69DB
:1042B000D1E902210068FFF798FE20E00A68052A8C
:1042C00010D00268136A146A24F0010414620268B0
:1042D0009469096924F0F00444EA011191610068CD
:1042E00003620CE0012010BD0A698968006800F0D3
:1042F0000BF804E00A698968006800F016F80020ED
:1043000010BD0000F8FFFEFF10B5036A046A24F038
:1043100001040462846924F0F00444EA021423F0E6
:104320000A020A438461026210BD10B5036A23F0D9
:10433000100303628369046A23F4704343EA023280
:1043400024F0A00343EA01118261016210BD90F8DC
:104350002410C90706D001684A68836A22F4003233
:104360001A434A6090F82410890706D501684A6804
:10437000C36A22F480321A434A6090F82410490735
:1043800006D501684A68036B22F480221A434A600A
:1043900090F82410090706D501684A68436B22F497
:1043A00000421A434A6090F82410C90606D50168F5
:1043B0008A68836B22F480521A438A6090F8241032
:1043C000890606D501688A68C36B22F400521A4335
:1043D0008A6090F82410490611D501684A68036C78
:1043E00022F480121A434A60016CB1F5801F06D195
:1043F00001684A68436C22F4C0021A434A6090F88C
:104400002410090606D501684A68806C22F400224F
:1044100002434A607047F8B500260446C0F8806041
:10442000FDF7D0FF0546206800686FF07E47000763
:1044300008D52B4600224FF400112046009700F0CB
:10444000FFF960B92068006840070AD52B460022B2
:104450004FF480012046009700F0F2F908B10320E4
:10446000F8BD2020A067E067266684F8746000200D
:10447000F8BD10B5806A0021A0F85A10A0F85210BB
:10448000FFF76AF910BD01680A6822F490720A60A9
:1044900001688A6822F001028A60016E012904D154
:1044A00001680A6822F010020A602021C167002119
:1044B00001664166704770B5B0F85C10C26F044683
:1044C0000068222A04D0018B41F00801018370BDED
:1044D000808C626D08401080606D801C6065B4F84F
:1044E0005A00401EA4F85A00B4F85A000028EED131
:1044F0002068016821F4907101602068816821F0D2
:10450000010181602020E06700256566206E01289A
:1045100004D02046FFF7E8FA256670BD20680168E0
:1045200021F010010160B4F858102046FFF712F98D
:10453000F2E770B5B0F85C10C26F04460068222A3A
:1045400004D0018B41F00801018370BD808C0840CC
:10455000616D0870606D401C6065B4F85A00401EC3
:10456000A4F85A00B4F85A000028EED12068016877
:1045700021F4907101602068816821F0010181605F
:104580002020E06700256566206E012804D02046C3
:10459000FFF7AAFA256670BD2068016821F01001B6
:1045A0000160B4F858102046FFF7D4F8F2E7000095
:1045B0002DE9F0410446016880682269E3691043EF
:1045C000626900251A431043714F0A68714B1A4003
:1045D00002430A6020684168E26821F440511143B7
:1045E00041602168A069B94201D0226A10438A68FB
:1045F00022F4306202438A606749236867488B422D
:104600000DD1D0F8880010F0030006D0012847D063
:10461000022843D0032830D144E001212EE0604934
:104620008B420BD1D0F8880010F00C0034D0042855
:1046300036D0082832D00C281FD133E059498B429C
:104640000BD1D0F8880010F0300025D0102827D0EA
:10465000202823D0302810D124E0BB420DD1D0F83F
:10466000880010F4406017D0B0F5806F18D0B0F516
:10467000006F13D0B0F5406F14D010214A4A0026C5
:104680004FF40040BB422DD171B102290FD0042953
:104690000FD0082972D10FE00021EFE70221EDE7EA
:1046A0000421EBE70821E9E7FEF7E6F803E010460E
:1046B00002E0FEF705F9E0B3626802EB42018142D5
:1046C0005CD8B0EB023F59D8010E0302500818180D
:1046D00071410023FBF7DCFD344AA0F540719142A3
:1046E0004ED94BE0E3694FF6EF77834228D1092991
:1046F00044D2DFE801F005080B430D4343431000AB
:10470000FEF7BAF806E0FEF7C9F803E0104602E04B
:10471000FEF7D6F868B14100606801EB5001B1FBCB
:10472000F0F081B2A1F11000B84227D84FF6F07234
:1047300000E027E001EA0200C1F3420108431FE064
:1047400009291BD2DFE801F005080B1A0D1A1A1A05
:104750001000FEF791F806E0FEF7A0F803E010461F
:1047600002E0FEF7ADF868B1616800EB5100B0FB04
:10477000F1F080B2A0F11001B94201D9012501E0A8
:104780002168C86066662846A666BDE8F08100001C
:1047900000800040F369FFEF003801400010024044
:1047A00000440040004800400024F400FFFC0F00DB
:1047B00030B54165A0F85820A0F85A200022426682
:1047C00081684FF48055FF23A94204D1016921BBC0
:1047D00040F2FF1127E07F24E9B1B1F1805F1FD0E3
:1047E000A0F85C20C0F880202221C16701688B6896
:1047F00043F001038B608168A94201D10169C1B115
:104800000D49416680F874200068016841F4907198
:104810000160002030BD016941B9A0F85C30E1E7DA
:10482000016919B13F21A0F85C10DBE7A0F85C40FA
:10483000D8E70249E5E7000033450008B74400081F
:104840002DE9F0479A4617460E4604464FF00009F8
:104850004FF02008089D39E0681C37D0FDF7B2FD05
:10486000A0EB0A00A84222D80DB3206801684907CE
:104870002CD5C069C043000528D421684FF40060DE
:1048800008622068016821F4D071016020688168A5
:1048900021F001018160C4F87880C4F87C80C4F8FC
:1048A000808000BF84F874900320BDE8F087206802
:1048B000016821F4D07101602068816821F0010154
:1048C0008160C4F87880C4F87C80EBE72068C06918
:1048D00036EA000004D00020B842BDD00020E4E752
:1048E0000120F9E70148FEF739BF0000B0010020C0
:1048F000FEE703B401984100009850EAC12018BFB8
:1049000004204A0D18BF40F0010040F2FF72B2EBE4
:10491000515F08BF40F00200012808BF052002B027
:1049200070470907090E002804DB00F1E02080F839
:104930000014704700F00F0000F1E02080F8141D13
:10494000704700000000000030B52DED048B81B0F1
:10495000B0EE408AF0EE608A6A4651EC180B00F027
:104960003BF900989FED329B7E300090002821DCBF
:1049700053EC192B51EC180B00F02CFC1AD0002131
:1049800040F608004FF00000044651EC180B00F010
:10499000DBF908EE100A40F6080004EA00014FF0C7
:1049A0000000B5EEC08AF1EE10FA04BF0220FBF75A
:1049B000A9FD2DE00098FF2830DB002108464FF0CC
:1049C000000000F4400553EC192B51EC180B00F0DB
:1049D0008BFD8CBF002401240220FBF793FD9FED8B
:1049E000168A4DB1002C0CBF4FF400004FF480002C
:1049F000A84218BF9FED118A042108464FF000001D
:104A0000002C01BFB1EE480A01B0BDEC048B30BDF3
:104A1000B0EE480A01B0BDEC048B30BD51EC180B70
:104A200000F092F901B000EE100ABDEC048B30BD2D
:104A300000000000000000000000807FFFFF7F7F7B
:104A400030B583B00446FBF758FD9FED090B0546D2
:104A50008DED000B002221466846FBF79BFF2846A0
:104A6000FBF750FD9DED000B03B030BD00000000D2
:104A7000000000000000000030B540F2FF742DED92
:104A8000048BF0EE608A18EE901A85B0B0EE408A82
:104A90009FED2B9B05468DED008B34EA115147D0DD
:104AA00053EC192B51EC180B00F094FB40D02A4624
:104AB00051EC180B00F0EAFE41EC180B18EE900ACE
:104AC0008DED008B34EA10501CD053EC192B51ECB7
:104AD000180B00F07FFB2BD10220FBF713FD00F039
:104AE00043F810EE901A18EE900A8DED020B8DED42
:104AF000008B61F31E0003909DED020B05B0BDEC31
:104B0000048B30BD0220FBF7FDFC00F01DF810EE19
:104B1000901A18EE900A8DED020B8DED008B61F36B
:104B20001E0003909DED020B05B0BDEC048B30BD63
:104B300005B0B0EE480AF0EE680ABDEC048B30BD5B
:104B400000000000000000009FED050B10B553ECC5
:104B5000102B51EC100B00F0C9FB41EC100B10BDF9
:104B600000000000000000709FED050B10B553EC35
:104B7000102B51EC100B00F0B9FB41EC100B10BDE9
:104B8000000000000000001010B5044691ED000B7D
:104B9000FFF7DAFE84ED000A10BD10B5044690ED73
:104BA000000B0846FFF768FF84ED000B10BD30389E
:104BB0000A2801D2012070470020704738B504460A
:104BC0008DF8000001231A4669460248FEF7B8FF37
:104BD000204638BDB001002010B582B01446CDE9A2
:104BE00000010023009A2360194B21F000409842F5
:104BF0002ADA024328D0B0F5801FA8BF226810DA55
:104C00009FED150B53EC102B9DED000B51EC100B91
:104C100000F06CFBCDE900016FF0350221F000409F
:104C200022600F4B6FF31E5103EB205010442060A5
:104C300041F0FF5040F0005001909DED000B00BF8F
:104C400002B051EC100B10BD9DED000BF8E7000019
:104C50000000F07F00000000000000000000504352
:104C600002FCFFFFFDF7BCFBFFF71FF9FEF7C6FFD5
:104C7000FFF756F8FFF788F8FFF702F8FFF7A8F8F4
:104C8000144C012202212046FDF797FB002240210F
:104C90002046FDF792FB04210F48FEF763FC6322D8
:104CA00000210E48FFF7B4F801220D490D48FEF728
:104CB000F7FE0D48FEF766FA0C48FEF73BFA064988
:104CC000002009688863012208212046FDF775FB52
:104CD000FEE7000000040048640100208C00002072
:104CE00004000020B001002018010020CC000020AA
:104CF00010B500290AD00878002807D00548784464
:104D0000FCF780FA002801D0002010BD024878444A
:104D100010BD0000320D00002A0D000010B5002962
:104D20000AD00878002807D005487844FCF76AFACA
:104D3000002801D0002010BD0248784410BD0000BA
:104D4000220D00001A0D000021F00042A2F1605275
:104D5000B2F5801F01F0004328BFD2F17F6C0BD960
:104D60005FEA001C43EAC20242EB507018BF704772
:104D700028BF20F001007047B2F5801FBCBF184665
:104D800070474FEA410C1CF5001F02D2084600F0A4
:104D900041BD70B500F054FB00000089FFF7F6BF7D
:104DA0004FF00040A0F580007047000010B591EA78
:104DB000030F48BF83F0004300F1D483841A71EBE2
:104DC000030C05D2121943EB0C03001B61EB0C0121
:104DD000DFF824E14FEA1154A4EB135C1EEA430F01
:104DE00018BF9EEA445F73D023EA0E03DCF1200E65
:104DF00021EA045143F4801332D322FA0CFE10EB63
:104E00000E0023FA0CFE41EB0E01CCF1200E03FA4A
:104E10000EFE10EB0E0051F10001B1F5801FCCF138
:104E2000200E32D201EB045112FA0EF2BDE810400E
:104E300058BF7047401C38BF5FEA420218BF704736
:104E4000002814BF20F0010041F100014FEA4103A6
:104E500013F5001F38BF7047A1F1C04100F03EBB01
:104E6000012A43EB0302ACF1200CDCF11F0E32BF30
:104E70004FF0000E23FA0CF310EB030041EB04514A
:104E8000B4EB115FD0D0A1EB045101F580114908BA
:104E90005FEA300001EB04510ED350F1000038BF3F
:104EA00012FA0EFE08D1BDE81040C9E7401C38BF19
:104EB0005FEA4202CAD1C3E7BDE810404FEA4103AE
:104EC00013F5001F38BF7047A1F1C04100F006BBC9
:104ED0009EEA445F08D011EA5E0FBDE8104004BFAF
:104EE00001F0004100207047BDE8104070B500F0AF
:104EF000A7FA00BF64FBBE3E0000E0FF02494FF08E
:104F0000000000F091BC00BF0000F87F491058BFBE
:104F1000C1F140415B1058BFC3F140438B42EFF3F6
:104F2000008070472DE9C04130B4DFF8A0C23CEAF0
:104F3000111418BF3CEA131400F0EC8081EA030559
:104F40001CEA111444EAD57418BF1CEA131500F0CA
:104F5000C780A4EB05044FF0004545EAC12145EAAE
:104F6000C32341EA505143EA525304F17F749942FA
:104F700004F500344FEAC0204FEAC22208BF904235
:104F800000F09C804FEA13650FF24016765D4FEA01
:104F9000134506FB05F7C7F1807706FB07F74FEAD5
:104FA000D737A7FB03687642C8F58038A7FB06CE43
:104FB00038BFA8F1010807FB08E64FF0000EA6FB7A
:104FC000028CE6FB03CEDCF1000CCEF1004E38BFC4
:104FD000AEF1010EA6FB0C584FF000074FF0000594
:104FE000E6FB0E87A1FB08C6A0FB07CE16EB0E065C
:104FF00045F10005E1FB076515F1E04E7EBFA4F524
:1050000080345FEA46066D4116F1800745F10005E0
:105010004FEA17274FEA066647EA0567A6F1DE461C
:10502000B6F1805F4FEA15251FD9384624F0010CF0
:1050300005EBC471BCF1FE6F01EB0C1102D8F0BCA2
:10504000BDE8008124425CBF01F5801E9EEAC47F5A
:1050500002D4F0BCBDE80081244238D4F0BCA1F1F8
:10506000C041BDE8004100F039BA4FEAD22242EA1D
:1050700043524FEAD323A7FB02864FEAD02040EAEF
:10508000415007FB03661EEA0E0F4FEAD12105FBD4
:10509000026658BFA6EB0056B6EB00564FEA520E1A
:1050A0004EEAC37E18EB0E0E56EB530EBDD518EB31
:1050B00002085E417F1C55F10005B6E74FF48015EC
:1050C0004FF000074FF000064FF00008ADE7F0BCCE
:1050D0004FF0000001F1C04101F00041BDE8008146
:1050E00011EA0C1F0CEA131500D00CE013EA0C1F98
:1050F00000F025804FF00000F0BC81EA030101F0D0
:105100000041BDE80081F0BCBDE8004181EA030137
:1051100000F0E4B9F0BCBDE8004170B500F090F9D2
:10512000097EFC3E00F007B881EA03014FF0000061
:1051300001F00041704781EA030100F0CFB9F0BCF3
:10514000BDE800414FF0000021497047FFFDFBF929
:10515000F7F5F4F2F0EEEDEBE9E8E6E4E3E1E0DEAA
:10516000DDDBDAD8D7D5D4D3D1D0CFCDCCCBCAC81C
:10517000C7C6C5C4C2C1C0BFBEBDBCBBBAB9B8B743
:10518000B6B5B4B3B2B1B0AFAEADACABAAA9A8A836
:10519000A7A6A5A4A3A3A2A1A09F9F9E9D9C9C9B04
:1051A0009A999998979796959594939392919190AF
:1051B0008F8F8E8E8D8C8C8B8B8A89898888878740
:1051C0008685858484838382828181800000FF07B5
:1051D0000000F87F51EA030C17D41CF5801F58BF5C
:1051E000BCF5801F00F10680994218BF704708BFC8
:1051F0009042704707D711F5801F58BF13F5801FE5
:1052000019D499427047894270471CF5801F08D510
:10521000BCF5801FF7D58B4218BF704708BF82428C
:1052200070474FF4001C1CEB410F38BF1CEB430FC1
:1052300001D28B42704770B500F002F99224490008
:105240004FF000514FF08053FFF760BEB0FA80F38B
:1052500010FA03F10AD0C3F11D0303F580634FEA8E
:1052600041504FEA035202EBD12170474FF000004A
:105270007047000051EA030C17D41CF5801F58BF7B
:10528000BCF5801F00F10680994218BF704708BF27
:105290009042704707D711F5801F58BF13F5801F44
:1052A00019D499427047894270471CF5801F08D570
:1052B000BCF5801FF7D58B4218BF704708BF8242EC
:1052C00070474FF4001C1CEB410F38BF1CEB430F21
:1052D00001D28B42704770B500F0B2F892244900B9
:1052E0004FF000514FF08053FFF710BEDFF848C178
:1052F00070B51CEA111E1EBF1CEA13159EEA0C0FA6
:1053000095EA0C0F00F06F8081EA030423EA4C1346
:105310004EEAD47E21EA4C1141F4801143F480130B
:10532000AE44A1FB024CA0FB0365AEF17F7E3619B3
:1053300055EB0C05A1FB034C4CF10003A0FB021C38
:1053400016EB0C06654153F10003094218BF46F005
:10535000010613F4007F0BD14FEA03314FEA053009
:10536000340341EA155140EA16506FF003020AE097
:105370004FEAC3214FEAC520F40241EA555140EA01
:1053800056506FF0020202EB2E4201EB025585EA05
:10539000CE710AD05FEA440C18BF24F0004450F1EB
:1053A000000041F1000120EAD47040F2FE7C624529
:1053B00000D270BDA84214BF4FF080444FF040446B
:1053C000002E08BF0024BEF1806FA8BFA1F1C0412C
:1053D000BDE8704080F282804FF0000001F1C041D2
:1053E00001F0004170479EEA0C0F0CEA131518BF3C
:1053F00095EA0C0F06D04FF0000081EA030E0EF084
:10540000004170BD00F01CF88900013E00F007B8B3
:1054100000F009B84FEA430C5FEA5C5C08D081EA0F
:10542000030100F05BB84FEA410C5FEA5C5CF6D127
:105430004FF00000014970470000FF070000F87FAF
:105440000EF1020E2EF0030E5EF8046B364205D408
:10545000012A43EB030515F5001F12D8012841EB83
:10546000010C1CF5001F0CD80ED14FEAD17C15F5AC
:10547000001F0CEB4C0C0CF1020C08BF4CEBD37C66
:1054800004E04FF0080C01E04FEAD37C0CEB4C0534
:1054900026FA05F606F00706B6F1040C06D20EEB66
:1054A000860CBDE870404CF0010C6047DFE80CF062
:1054B000090B02024FF000414FF00000A1F500215E
:1054C00070BD19461046012851EB010418BFD4F5F0
:1054D000001484BF002001F0004170BD0808A0F551
:1054E00000114FEA3101704753EA010C17D41CF543
:1054F000801F58BFBCF5801F00F106808B4218BF8B
:10550000704708BF8242704707D713F5801F58BF06
:1055100011F5801F19D48B4270479B4270471CF5D0
:10552000801F08D5BCF5801FF7D5994218BF70477A
:1055300008BF904270474FF4001C1CEB430F38BF6C
:105540001CEB410F01D2994270470FB40CBC03BC55
:10555000FFF7C1BE10B591EA030F48BF83F00043C7
:105560003FF52CAC841A71EB030C07D212198CF0A6
:10557000004C43EB0C03001B61EB0C01DFF8A4E1D2
:105580004FEA1154A4EB135C1EEA430F18BF9EEAC6
:10559000445F00F0B08023EA6E03524221EA0451D6
:1055A000C3EB6E0338BF5B1EDCF1200E25D322FA5D
:1055B0000CFE10EB0E0043FA0CFE41EB0E01CCF199
:1055C000200E03FA0EFE10EB0E0051F10001CCF19B
:1055D000200E29D412FA0EF201EB0451BDE810405E
:1055E00058BF7047401C1CBFB2F1004F70470028E5
:1055F0000CBF491C20F00100704712EB020E43EB78
:10560000030218BF4FF0010E4EEA4202ACF1200C2B
:10561000DCF11E0E54D943FA0CFE10EB0E0051F1D2
:10562000FF31CCF11E0ED5D50EF1010E12FA0EFE91
:10563000404141EB010101EB445C5FEA5C5C10D945
:1056400010EBDE7001EB045138BFBEF1004FBDE836
:10565000104018BF704700280CBF491C20F0010003
:10566000704730D24FEAD42C11F5001124F40064B5
:105670001BD0B1FA81F20B3AA41AA41ED2F1200376
:10568000914030FA03F31943904001EBCC71002CA8
:1056900001EB0451BDE81040A8BF704701F1C041C3
:1056A0004FF0000001F000417047B0FA80F310FAAB
:1056B00003F100D110BDE41A173C4805C90AE4E71C
:1056C00001EB045110BD491001EB0451BDE810403D
:1056D0004FEA300002E04FF0000170474A0008BF77
:1056E0000042F8D0B2F5001F28BF704701F000411A
:1056F0004FF0000070479EEA445F07D011EA5E0F4A
:10570000BDE8104004BF002100207047BDE81040F4
:1057100070B5FFF795FE00BF40DFF63E83F0004115
:10572000104670470000E0FF43004FEAD30C4FEAF9
:105730003C0C43401FBF40070CF1605113F0FE4F7B
:1057400070471CF0006F03D100200CF0004170473F
:105750000CF0004343EA507010B540EACC0000F072
:105760000EF800BF000000924FEA0001FFF7B6BE3E
:105770004FF000414FF00000A1F5002170470EF1FD
:10578000020E2EF0030E5EF8044B244204D44FEABE
:105790004102B2F17F4F11D84FEA4003B3F17F4F7E
:1057A0000CD80ED14FEAD07CB2F17F4F0CEB4C0CF1
:1057B0000CF1020C08BF4CEBD17C04E04FF0080C5C
:1057C00001E04FEAD17C0CEB4C0324FA03F404F023
:1057D0000704B4F1040C06D20EEB840CBDE81040B3
:1057E0004CF0010C6047DFE80CF0070802024FF0B4
:1057F0000040A0F5800010BD0846420018BFD2F15D
:10580000807288BF00F0004010BD4FF04070E1EEA4
:10581000100A7047FF2141EAD050C00570474FF091
:1058200000007047FAF74DBF0CF00F03092B08BFBB
:10583000082000F05F800A2B0BD0082B18BF7047A0
:1058400008BF1CF0400F0AD04FF000004FF00001DD
:1058500070471CF0400F18BF4FF0004070471CF01D
:10586000100F08D020F0704300F07F4242EAD301CD
:105870004FEA4370704700F0604021F07F4242EAF7
:10588000000201F07F4040EA727070474FF0FF0C59
:105890004CF4E06C1CEA11531CBF9CEA030C9445C9
:1058A000C2BFDA4201EB02517047002B0DD0BCF1B0
:1058B000000F0FD0002A01F00041A4BF41F0E041E9
:1058C00041F07F614FF00000704701F000414FF060
:1058D0000000704750EA01334FF09B0C18BF4CF0AA
:1058E000806C7FF40BAB7047FBF724BBFBF7D0BC9D
:1058F000FBF762BE1CF4801F11D01CF4E02F03D014
:105900006FEACC31490070474FF04050EFF300820E
:1059100022F0704242EA000282F3008870474FF0A2
:1059200000007047000000000000000001020304B6
:1059300006070809A0860100400D0300801A060032
:1059400000350C0040420F0080841E0000093D001D
:1059500000127A000024F40000366E010048E801CD
:10596000006CDC02000000000102030402400000A1
:10597000000000A00000000005400000000000C87A
:10598000000000000C4000000000409C00000000EF
:10599000194000000020BCBE0000000034400000A0
:1059A000BFC91B8E00000004B5400000504BCFD093
:1059B0006607E2CF010000006C4100003E8251AA60
:1059C000DFEEA73401000000D9420000DCB5A0E200
:1059D0003A301F97FFFFFFFFB4450000FD25A0C828
:1059E000E9A3C14FFFFFFFFFFF3F00000000008061
:1059F00000000000FF3F00000000008000000000E9
:105A00005C5B00080000002028000000C8010008BE
:105A1000845B00082800002070080000E4010008F2
:105A2000000000000000F07FFFFFFFFFFFFFEF7F9F
:105A30001C00000043000000F8FFFFFF0C00000006
:105A40000E0000000F0000002E00000010010000FA
:105A500043000000F8FFFFFF00404040404040404E
:105A60004040414141414140404040404040404031
:105A700040404040404040404005020202020202D5
:105A80000202020202020202022020202020202024
:105A90002020200202020202020290909090909038
:105AA00010101010101010101010101010101010F6
:105AB000101010100202020202028888888888886A
:105AC0000808080808080808080808080808080856
:105AD000080808080202020240000000000000005E
