:020000040800F2
:10000000680600203D02000845020008470200087B
:10001000490200084B0200084D02000800000000E1
:100020000000000000000000000000004F02000877
:1000300051020008000000005302000855020008A9
:10004000570200085702000857020008570200082C
:10005000570200085702000857020008570200081C
:10006000570200085702000857020008570200080C
:1000700057020008570200085702000857020008FC
:10008000570200085702000857020008000000004D
:1000900000000000000000000000000057020008FF
:1000A00057020008570200085702000857020008CC
:1000B00057020008570200085702000857020008BC
:1000C00057020008570200085702000857020008AC
:1000D00057020008570200085702000800000000FD
:1000E00057020008570200085702000800000000ED
:1000F000000000000000000000000000570200089F
:1001000000000000570200085702000857020008CC
:1001100000000000000000000000000000000000DF
:10012000570200085702000857020008570200084B
:10013000570200080000000000000000000000005E
:10014000000000000000000000000000570200084E
:10015000570200085702000857020008570200081B
:1001600057020008570200080000000000000000CD
:10017000000000000000000000000000000000007F
:10018000000000005702000800000000000000000E
:100190005702000800F002F800F041F80AA090E8C9
:1001A000000C82448344AAF10107DA4501D100F032
:1001B00036F8AFF2090EBAE80F0013F0010F18BFBE
:1001C000FB1A43F0010318479C0B0000BC0B000016
:1001D000103A24BF78C878C1FAD8520724BF30C873
:1001E00030C144BF04680C60704700000023002445
:1001F00000250026103A28BF78C1FBD8520728BF37
:1002000030C148BF0B607047642900F04B8000206C
:1002100070471FB500F078FD1FBD10B510BD00F090
:1002200083F91146FFF7F5FF00F01CFD00F0A1F97E
:1002300003B4FFF7F2FF03BC00F0A4F909488047BC
:1002400009480047FEE7FEE7FEE7FEE7FEE7FEE7B8
:10025000FEE7FEE7FEE7FEE704480549054A064BD0
:10026000704700009509000895010008680000200B
:100270006806002068020020680200200FB41CB548
:10028000074B06AA7B4469460090059800F02FF9B9
:100290000020694600F03EF91CBC5DF814FB00002C
:1002A0008D0200002DE9F0410646002410687529F2
:1002B000314616A510D0AFF30080002802DA404284
:1002C00013A507E031688A0701D512A502E04907A6
:1002D00004D511A5012401E0AFF3008000210A221A
:1002E00006F1240709E0B0FBF2FCB0FBF2F302FBDD
:1002F0001C00303078541846491C0028F3D123469E
:100300002A463046BDE8F04100F092B800000000F7
:100310002D0000002B000000200000002DE9F04718
:100320004FF0000A89460446C0F820A02046E16844
:100330008847002876D0252806D0D4E901219047A7
:10034000206A401C2062F1E7E168204600258847CA
:10035000C4F81CA006460027C4F818A02A2E09D00D
:10036000304600F025FB38B304EB8708303EC8F870
:10037000186019E059F8041B204604EB87029161CC
:10038000E1688847012F064618D1E069002820DA85
:1003900025F020051DE0D8F8180000EB800006EBE2
:1003A00040003038C8F818002046E1688847064603
:1003B00000F0FEFA0028EED1012F0AD02E2E08D12F
:1003C0002046E16888477F1C0646022F45F020053D
:1003D000C4DBA069002803DA404245F00105A061B2
:1003E000E80701D025F01005B6B1A6F141001928A3
:1003F00002D8203645F400654A463146204625603D
:100400004D46FFF701FF58B1012806D0ED1D25F03C
:10041000070000F1080989E704E005F1040985E710
:1004200030468AE7206ABDE8F0877047704770471A
:100430002DE9F0470D4699469246044600F12408FE
:100440000168880604D5E06921F01001216000E010
:100450000120A84201DD471B00E00027A1697A19AD
:1004600002EB0900081AA0612078C00602D42046D9
:10047000AFF30080002608E0D4E901211AF8060055
:100480009047206A401C761C20624E45F4DB2078A1
:10049000C0060AD52046AFF3008006E0D4E901216A
:1004A00030209047206A401C2062381EA7F10107C7
:1004B000F4DC07E0D4E9012118F805009047206A30
:1004C000401C2062281EA5F10105F3DC2046AFF395
:1004D00000802078000602D50220BDE8F0870120C8
:1004E000FBE7000001694A1C02610878704700B50B
:1004F0008FB0CDE901310021059105497944CDE95D
:10050000031011466846FFF709FF0FB000BD000059
:10051000E5FFFFFF0A6802F8010B0A607047000060
:1005200000487047040000207546FFF7F9FFAE460B
:1005300005006946534620F00700854618B020B5EF
:10054000FFF78AFEBDE820404FF000064FF000079D
:100550004FF000084FF0000B21F00701AC46ACE86B
:10056000C009ACE8C009ACE8C009ACE8C0098D46D8
:10057000704710B50446AFF300802046BDE8104038
:10058000FFF756BE01491820ABBEFEE72600020069
:100590007047000070B500F0B1F82D2000F00FFAA0
:1005A0005248406940F480605049486150480068B2
:1005B00040F001004E4908604E48006820F00200FB
:1005C0004C4908600846006820F0080008600F20C9
:1005D00000F0F5F94548406940F4806043494861BE
:1005E0004348006840F00100414908604148006804
:1005F00020F002003F4908600846006820F008002B
:10060000086000F0B3F9062000F0D9F937484069D6
:1006100040F48060354948613548006840F0010089
:10062000334908603348006820F00200314908600F
:100630000846006820F00800086000F097F90120E3
:1006400000F0BDF92948406940F4806027494861BD
:100650002748006840F001002549086025480068E7
:1006600020F00200234908600846006820F00800D6
:10067000086000F07BF9012000F0A1F91B484069F7
:1006800020F48060194948611948006840F0010071
:10069000174908601748006820F0020015490860F3
:1006A0000846006820F00800086000F05FF90120AB
:1006B00000F085F9282000F01FF90C2000F01CF94B
:1006C000062000F019F9402000F016F90A4D002428
:1006D00005E0287800F022F9601CC4B26D1C402CA3
:1006E000F7D3802000F008F970BD00000000024040
:1006F0001404024014080240120D00084648006825
:1007000040F00700444908604448006820F4401065
:10071000424908600846006840F4801008600846B6
:10072000406820F4806048600846806840F44010CB
:1007300088603B48006820F003003949086008469B
:10074000006840F001000860081D006820F001000A
:10075000091D0860081D006840F00300091D0860BD
:100760003048006820F00C002E49086008460068F8
:1007700040F004000860081D006820F00200091D18
:100780000860081D006840F00C00091D086025483D
:10079000006820F0C000234908600846006840F067
:1007A00040000860081D006820F00800091D08606E
:1007B000081D006840F0C000091D08601748006867
:1007C00020F00300154908600846006840F0010069
:1007D00008600846406820F00100486008468068CC
:1007E00040F0030088600E48006820F440300C4957
:1007F00008600846006840F480300860081D006802
:1008000020F48070091D0860081D006840F4403025
:10081000091D0860704700003038024000000240A7
:1008200000040240000802401B49496921F480612C
:10083000194A51611146496900F0010241EA8221D9
:10084000154A51611549096821F00101134A1160E7
:1008500011460968C0F340021143104A1160104963
:10086000096821F002010E4A116011460968C0F3BF
:10087000800241EA42010A4A11601146096821F0EA
:100880000801116011460968C0F3C00241EAC201C3
:10089000034A116070470000000002401404024047
:1008A0001408024070B504460D46002634B1012CF0
:1008B00006D0022C06D0032C08D105E0802606E0E5
:1008C000C02604E0942602E0D42600E000BF00BF6A
:1008D0007019C6B2304600F00FF870BD10B504466E
:1008E0002009FFF7A1FF00F041F804F00F00FFF727
:1008F0009BFF00F03BF810BD10B5044606480068A9
:1009000020F48070044908602046FFF7E7FF0320C9
:1009100000F055F810BD00001404024010B5044664
:100920000448006840F48070024908602046FFF7E0
:10093000D5FF10BD140402401FB50446224604A191
:100940006846FFF79BFC684600F004F81FBD0000F6
:100950002564000010B5044603E02078FFF7DEFFB1
:10096000641C20780028F8D110BD000010B508489C
:10097000406940F00100064948614FF4FA7000F008
:100980002AF80348406920F001000149486110BD80
:10099000000002400548006840F470000349086008
:1009A0004FF00060014980390860704788ED00E031
:1009B00030380A2801D2012070470020704730B536
:1009C0000446002504E040F2E73000F004F86D1C16
:1009D000A542F8D330BD00224FF0E0231A610F2268
:1009E0005A6100229A611A46126942F005021A61A0
:1009F000002108E000BF4FF0E022126902F48032CB
:100A0000002AF8D0491C8142F4D300224FF0E023A1
:100A10001A6170474D48006840F006004B49086075
:100A20004B48006820F030004949086008460068DB
:100A300040F010000860081D006820F00C00091D3F
:100A40000860081D006840F03000091D086041483A
:100A5000006820F440303F4908600846006840F4D0
:100A600080300860081D006820F44070091D08608F
:100A7000081D006840F44030091D086034480068D3
:100A800020F44020324908600846006840F4802085
:100A90000860081D006820F4C060091D0860081D7A
:100AA000006840F44020091D08602948006820F4CF
:100AB0004060274908600846006840F4806008608C
:100AC000081D006820F06000091D0860081D00680E
:100AD00040F44060091D08601E48006820F4C060B2
:100AE0001C4908601B480C30006840F480201949FC
:100AF0000C3108601648006820F4C0701449086082
:100B000013480C30006840F4804011490C310860F3
:100B10001048006820F0C0000E4908600D480C30F5
:100B2000006840F480500B490C31086009480068A7
:100B300020F4C0700749086006480C30006840F493
:100B4000804004490C310860704700003038024092
:100B5000000402400008024070B50025002470E047
:100B60003D48006840F004003B4908603B4800688D
:100B700040F48070394908603748006840F40070DC
:100B8000354908600846006840F02000086034B12C
:100B9000012C0BD0022C10D0032C1CD114E02E48B9
:100BA000006820F004002C49086014E02B4800681D
:100BB00020F48070294908600DE02748006820F47F
:100BC00000702549086006E02348006820F02000F6
:100BD0002149086000BF00BF4FF4FA70FFF7FBFE29
:100BE0001E48001F0068C0F3C010C0001B49091F49
:100BF0000968C1F3801140EA81001749091F09689B
:100C0000C1F3C01140EA41001449091F0968C1F34A
:100C1000402140EA01060025072E0BD00B2E07D0FD
:100C20000D2E03D00E2E07D100BF05E0012503E0F5
:100C3000022501E0032500BF00BF05B103E0601CF1
:100C4000C4B2042C8CDB00BF0DB9002070BD044879
:100C500000EB8400405DF9E71404024014080240F0
:100C6000520D0008FFF7D6FEFFF794FC0120FFF7B6
:100C700043FE16A0FFF76EFE00210120FFF712FED3
:100C800018A0FFF767FE00210220FFF70BFE40F2DD
:100C9000E570FFF751FE00210320FFF703FE16A0C9
:100CA000FFF758FE11E0FFF757FF16490870084696
:100CB000007850B100210320FFF7F4FD0EA0FFF7EC
:100CC00049FE10480078FFF729FEECE72A2A2A2A75
:100CD0002A2A2A554D414B45522A2A2A2A2A2A2AAB
:100CE000000000002D2D2D2D2D2D3E53544D33325F
:100CF0003C2D2D2D2D2D2D0050524553494F4E4545
:100D00002D3E2000000000204FF04070E1EE100A60
:100D10007047110A041B1111110E10101010101041
:100D2000101018181818181818181C1C1C1C1C1C3B
:100D30001C1C1E1E1E1E1E1E1E1E1F1F1F1F1F1FD1
:100D40001F1F000000000000000000000000000065
:100D500000003738392F343536583132332D63306F
:100D60003D2B0000840D000800000020040000005E
:100D7000D0010008880D000804000020640600006F
:080D8000EC0100080000000076
:040000050800023DB0
:00000001FF
